:030000000220DCFF
:0C20DC00787FE4F6D8FD7581070221230F
:1017BE006100000000FFFFFFFFFFFF00042100009B
:1017CE00000000000000010380000000080000007F
:1017DE0000000000000000000000010101010101F5
:1017EE0001010101010101010101FA19200E300070
:1017FE0050500306000E000000000016000000000E
:10180E0000000000000000000000000000000000CA
:10181E0000000000000000000000000000000000BA
:10182E0000000000000000000000000000000000AA
:10183E000000000700000000000000000000000093
:10184E00000000000000000000000000000000008A
:10185E00000000000000000000000000000000007A
:10186E00000000000000000000000000000000006A
:10187E00000000000000000000000000000000005A
:10188E00000000000000000000000000000000004A
:10189E00000000000000000000000000000000003A
:1018AE00000000000000000000000000000000002A
:0418BE000000000026
:0B149D00900100EBF0A3EAF0A3E9F0DF
:1014A800900176E0FEA3E0FF900175E02FFF900128
:1014B80074E03EFE900179E02FFF900178E03E90C5
:1014C8000103F0A3EFF090017FE0FF90017EE02F91
:1014D800FFE433FE900180E07C002FFFEC3E90019A
:1014E80005F0A3EFF0E47B0AFAF9F890016CE0FC50
:1014F800A3E0FDA3E0FEA3E0FF12027B900100E061
:10150800FBA3E0FAA3E0F9EF12013FE47B0AFAF942
:10151800F890016CE0FCA3E0FDA3E0FEA3E0FF125D
:10152800027BE4FB7A01F9F812027B900100E0FBF0
:10153800A3E0FAA3E0F9900001EF120151900172C3
:10154800E0FEA3E0900002120151900104E0900037
:1015580003120151EEC4F8540FC868FFAD0790019B
:1015680003E02D90000412015190017DE0900005E8
:10157800120151900106E090000612015190017C81
:10158800E0C4F8540FC868FFAC07900105E02C9040
:101598000007120151900175E09000081201519066
:1015A8000177E090000912015190017EE0540FC4C8
:1015B80054F0FFA3E0540F2F90000A12015190013C
:1015C80076E0C4F8540FC868FFAC07900174E07E59
:1015D800007806C333CE33CED8F92CFF90017EE0D5
:1015E800C4540F25E025E02FFFA3E0C4540F2F902B
:1015F800000B120151900173E090000C1201519000
:10160800017DE090000D12015190017CE02D9000C9
:101618000E120151900181E025E04418FFA3E02556
:0A162800E025E04F9000110201518F
:0B21EC00900100EBF0A3EAF0A3E9F083
:1021F700E4FFFE900100E0FBA3E0FAA3E0F98E8282
:102207007583001201122FFF0EEEB47FE6C3E49F21
:10221700FF900100E0FBA3E0FAA3E0F990007FEF55
:10222700120151E4FFFEEE2480FDE433FC9001002F
:10223700E0FBA3E0FAA3E0F98D828C831201122F51
:10224700FF0EEEB47FE0C3E49FFF900100E0FBA325
:0C225700E0FAA3E0F99000FFEF02015153
:10266C00000100000000000000010001000000015A
:10267C000001000200000002000100030000000342
:10268C0000020007000000070002000B0000000B16
:10269C000002000F0000000F0004001F0000001FCC
:1018C20044018C0000000044018600000000440135
:0518D200900000000081
:101901000501000511000510000529001536001517
:101911003A00B9FF8394BA7383B16C151524E411AD
:10192100F180E4D72380C0D258B200641007201C94
:1019310008081C4D00B400FF035A035A035A016AF8
:10194100016AD3000600401A08003210070007544C
:10195100150F0504021210050733330B0B3710075F
:1019610007D5191918181A1A1B1B040506070001B7
:101971000203202118181818181818181818181800
:101981002223181818181818181818181818D61803
:101991001819191A1A1B1B03020100070605042353
:1019A100221818181818181818181818182120189B
:1019B1001818181818181818181818E000060C31FB
:1019C100343F1D41060A0C170F1215131407121587
:1019D1001600060B30343F1D40070A0D180E121475
:1019E100121408131419B66060CC09D255C0301412
:1019F100BF410E01C700C040C0DF8EFF1913FF19A0
:101A010017FF191AFF192AFF1936FF1943FF196227
:101A1100FF198FFF19BCFF19E7FF19EAFF19ECFF46
:101A210019EEFF19F1FF19F5FF19FA0403100C0D56
:0B1A31001F2D2D2B03020203040502F1
:071C9200E493FF7BFF7D02DC
:101C9900900102EFF0A3EDF0A3EBF0A3EAF0A3E9C2
:011CA900F04A
:101CAA00E4A3F07D407F1C7EC2122835900103E038
:101CBA006402704F7D0C7F187EC21228357D047F26
:101CCA00197EC2122835900102E0FD7F347EC212CD
:101CDA002835900104E0FBA3E0FAA3E0F91200F929
:101CEA00FD7F347EC2122835900104E0FBA3E0FA9E
:101CFA00A3E0F9900001120112FD7F347EC212287E
:101D0A003580727D0E7F187EC2122835900103E05D
:101D1A002406FD7F197EC2122835900102E0FD7F5C
:101D2A00347EC2122835900103E0FD7F347EC21250
:101D3A002835E4FD7F347EC2122835E4900107F08D
:101D4A00900103E0FF900107E0C39F50289001042F
:101D5A00E0FBA3E0FAA3E0F91200F9FD7F347EC2AA
:101D6A00122835900105E475F0011201DA90010795
:101D7A00E004F080CB7F017E0012286CE4FD7F181E
:051D8A007EC2022835B5
:10244300E4900100F0A3F090190493FF7BFF7A1945
:1024530079057D02121C997F967E0012286C9019D3
:102463000D7A19790E121C927F967E0012286C90B9
:1024730019107A197911121C9290190AE493FF7BAF
:10248300FF7A19790B7D02121C997FC87E000228FE
:012493006CDC
:10233200FFFF00000000000000000000000000009D
:10234200000000000000000000000000000000008B
:10235200FFFF00000000000000000000000000007D
:10236200000000000000000000000000000000006B
:10237200FFFF00000000000000000000000000005D
:10238200000000000000000000000000000000004B
:0918D70046019C01000000000321
:10280A0012283590017FE0FD7F041228359001805F
:10281A00E0FD0F1228357F0890017EE0FD12283571
:0B282A007D0F0F1228350F1228350F0C
:072835008F828E83EDF0227B
:102942007D017F347EA01228357F0A7E0012286C1A
:042952007FB17EB81B
:072956008F828E83E0FF2257
:072865001228357F017E00FF
:10286C00EF1FAA0670011E4A6013E4FCFDC3ED9431
:0D287C005EEC940150EA0DBD00010C80F0EF
:01288900222C
:1025D200900183E060097B017A00793612149D7BB9
:1025E200017A0079001221EC7D037F8E7EC01228D1
:1025F20035E4FBFA74002BF58274003AF583E0FDB2
:102602007F907EC01228350BBB00010AE4B503E4BB
:0D261200EAB401E07D027F8E7EC002283513
:102168007D137F557E901228357D807F5712283544
:10217800E4FD0F1228357D400F1228357D030F121C
:1021880028357DFF0F1228357D987F5D1228357D13
:10219800FF7F5112283512282C7D130F1228357D08
:1021A800FF0F1228357D800F122835E4FD0F122805
:1021B800357D400F1228357D030F1228357D7F0F9E
:1021C8001228357DFF0F1228357D980F1228357D8E
:1021D800FF12282C12282C0F1228357D207F2E7EE6
:0421E800B0022835E4
:102494007D077F8E7EB01228357D770F1228357D1B
:1024A400F17F147ED11228357D1F7F567E9012282D
:1024B400357D987F621228357F147ED1122956EF1C
:1024C4004408FD7F14122835122956EF54FBFD7F72
:1024D400141228351F122956EF54FEFD7F130228CB
:0124E40035C2
:1028EE00EF7F147ED16008122956EF54F78006123E
:0C28FE002956EF4408FD7F1412283522F3
:10290A00EF7F147ED16008122956EF440480061224
:0C291A002956EF54FBFD7F1412283522D3
:10292600EF7F137ED16008122956EF44018006120C
:0C2936002956EF54FEFD7F1312283522B5
:10226300E4FDFF7EB01228357D077F8C1228357D73
:10227300770F12283590018AE0FCB401057D070F22
:102283008009EC70097D777F8E7EB01228357D77CB
:102293007F8F7EB01228357D027F137ED1122835C1
:1022A3007D190F1228357DC20F1228357D207F102E
:1022B3001228357DFF7F291228317D7F7F067E908E
:0C22C3001228657DFF7F067E9002283502
:1027A10090010012033D00000000122942AD077F95
:1027B100127ED21228357FB27EB8122956AD077F1C
:1027C100147ED21228357FB37EB8122956AD077F09
:0627D100157ED20228353E
:1026AC0090010012033D0000000090010412033D54
:1026BC00000000007D357F087EB81228357D017F33
:1026CC00347EA01228357F0A7E0012286C7FB07EE3
:0F26DC00B8122956EF5401B401037F01227F0089
:0126EB0022CC
:102043007F8B7ED2122956EF7D00FC7F8C7ED212CD
:102053002956ED2FFDE43CFCED25E0FDEC33FC7F40
:1020630096122956EF900102F0A3E4F07F977ED2F7
:10207300122956900103E02FF0900102E03400F0A2
:102083007F0C7EC2122956EF900100F0A3E4F07F8B
:102093000D7EC2122956900101E02FF0900100E05D
:1020A3003400F07F06122956EF7B00FA7F077EC2C9
:1020B300122956EB2FFBE43AFAAE04AF0590010068
:1020C300E0B5060FA3E0B5070AA3E06A7003A3E037
:0820D3006B60037F01227F0016
:0120DB0022E2
:1011260090010012033D0000000090010412033DEF
:1011360000000000122942E4FCFDFE9001001203AB
:10114600317FB27EB8122956E4FCFDFEC004C0050C
:10115600C006C007900100E0FCA3E0FDA3E0FEA3EB
:10116600E0FF780812031ED003D002D001D000EFB2
:101176002BFFEE3AFEED39FDEC38FC900100120330
:10118600317FB37EB8122956E4FCFDFEC004C005CB
:10119600C006C007900100E0FCA3E0FDA3E0FEA3AB
:1011A600E0FF780812031ED003D002D001D000EF72
:1011B6002BFFEE3AFEED39FDEC38FC9001001203F0
:1011C600317F127ED2122956E4FCFDFE90010412F4
:1011D60003317F147ED2122956E4FCFDFEC004C002
:1011E60005C006C007900104E0FCA3E0FDA3E0FEF5
:1011F600A3E0FF780812031ED003D002D001D0006E
:10120600EF2BFFEE3AFEED39FDEC38FC90010412AF
:1012160003317F157ED2122956E4FCFDFEC004C0C0
:1012260005C006C007900104E0FCA3E0FDA3E0FEB4
:10123600A3E0FF780812031ED003D002D001D0002D
:10124600EF2BFFEE3AFEED39FDEC38FC900104126F
:101256000331900104E0FCA3E0FDA3E0FEA3E0FF60
:10126600900100E0F8A3E0F9A3E0FAA3E0FBD312B3
:10127600030D4039900104E0F8A3E0F9A3E0FAA3D6
:10128600E0FB900100E0FCA3E0FDA3E0FEA3E09BF1
:10129600FFEE9AFEED99FDEC98FCE47B207A4EF980
:1012A600F8C312030D50037F01227F002290010034
:1012B600E0F8A3E0F9A3E0FAA3E0FBA3E0FCA3E0D7
:1012C600FDA3E0FEA3E0C39BFFEE9AFEED99FDECC5
:1012D60098FCE47B207A4EF9F8C312030D50037F85
:0412E60001227F0062
:0112EA0022E1
:10288A007D017F007ED81228351D7F5A1228357D9A
:10289A0007122830E4FD0F1228357D070F1228355C
:0428AA000F022835BC
:1006940074FF900103F0A3F0A3F0A3F0A3F0A3F080
:1006A40078097C017D01FB7A2379327E007F201258
:1006B40000D378297C017D017BFF7A2379527E0067
:1006C4007F201200D378497C017D017BFF7A237956
:1006D400727E007F201200D37D017F007ED8122815
:1006E400357B0FEB25E025E0246CF582E43426F518
:1006F40083740193C454F0FD7F5A7ED8122835EBDD
:1007040025E025E0246EF582E43426F58374019314
:10071400FD7F5C122835EB25E025E0246CF582E4AE
:100724003426F583E474019375F011A4FD0F1228A7
:1007340035EB25E025E0246EF582E43426F5837458
:100744000193FD0F122835EB25E025E0246EF58298
:10075400E43426F583740193FD0F1228357D077F59
:10076400207EC01228357D011228357F647E001258
:10077400286C7F247EC0122956EF547FFEEB25E0BF
:100784002409F582E43401F583EEF0A3E4F07F2537
:100794007EC0122956EB25E02409F582E43401F5E4
:1007A40083E48FF01201DA7F26122956EF547FFE7C
:1007B400EB25E02429F582E43401F583EEF0A3E48B
:1007C400F07F277EC0122956EB25E02429F582E428
:1007D4003401F583E48FF01201DA7F28122956EFF1
:1007E400547FFEEB25E02449F582E43401F583EEE1
:1007F400F0A3E4F07F297EC0122956EB25E02449BA
:10080400F582E43401F583E48FF01201DAEB25E09C
:100814002409F582E43401F583E0FEA3E0FF9001AE
:1008240003E0FCA3E0FDD3EF9DEE9C501DEB25E01F
:100834002409F582E43401F583E0FFA3E090010389
:10084400CFF0A3EFF0900100EBF0EB25E02429F5C5
:1008540082E43401F583E0FEA3E0FF900105E0FCAF
:10086400A3E0FDD3EF9DEE9C501DEB25E02429F57C
:1008740082E43401F583E0FFA3E0900105CFF0A307
:10088400EFF0900101EBF0EB25E02449F582E4342C
:1008940001F583E0FEA3E0FF900107E0FCA3E0FD87
:1008A400D3EF9DEE9C501DEB25E02449F582E43402
:1008B40001F583E0FFA3E0900107CFF0A3EFF090F0
:1008C4000102EBF01BEB640760030206E7900100F2
:1008D400E025E025E0246CF582E43426F583E47415
:1008E400019375F011A4FD7F5A7ED812283590012A
:1008F40000E025E025E0246EF582E43426F58374D7
:100904000193FD0F122835900100E025E025E02435
:100914006EF582E43426F583740193FD0F122835B5
:10092400900102E025E025E0246CF582E43426F50C
:1009340083740193C454F0FF900101E025E025E0A5
:10094400246CF582E43426F5837401932FFD7F5DD6
:10095400122835900101E025E025E0246EF582E4BB
:100964003426F583740193FD0F122835900102E0BB
:1009740025E025E0246EF582E43426F583740193A2
:05098400FD0F02283503
:10295D007F027EA0122956EF5420B420037F00225F
:02296D007F01E8
:01296F002245
:10036E007F8B7ED2122956EF90010CF0A3E4F07F22
:10037E008C7ED212295690010DE02FF090010CE0E8
:10038E003400F0A3E025E0F090010CE033F01228E9
:10039E003C7FFA7E0012286C7F8B7ED2122956EF9C
:1003AE007D00FC7F8C7ED2122956ED2FFDE43CFCA5
:1003BE00ED25E0FDEC33FCE4900116F0C390010D49
:1003CE00E09D90010CE09C503F900116E004F0E09F
:1003DE00D39405503312283C7FC87E0012286C7FC0
:1003EE008B7ED2122956EF7D00FC7F8C122956EDA2
:1003FE002FFDE43CFCED25E0FDEC33FC90010CE020
:10040E00B504C6A3E0B505C17D0B122944E4FCFD7D
:10041E00FE9001001203317FB27EB8122956E4FC21
:10042E00FDFEC004C005C006C007900100E0FCA39D
:10043E00E0FDA3E0FEA3E0FF780812031ED003D078
:10044E0002D001D000EF2BFFEE3AFEED39FDEC3875
:10045E00FC9001001203317FB37EB8122956E4FCE2
:10046E00FDFEC004C005C006C007900100E0FCA35D
:10047E00E0FDA3E0FEA3E0FF780812031ED003D038
:10048E0002D001D000EF2BFFEE3AFEED39FDEC3835
:10049E00FC9001001203317D017F347EA0122835BD
:1004AE007F897ED2122956EF900104F0A3E4F07FEB
:1004BE008A7ED2122956900105E02FF0900104E0B9
:1004CE003400F0A3E025E0F0900104E033F07F8BE0
:1004DE00122956EF900106F0A3E4F07F8C7ED21223
:1004EE002956900107E02FF0900106E03400F0A3AA
:1004FE00E025E0F0900106E033F07F9C122956EFE4
:10050E00900108F0A3E4F07F9D7ED212295690014F
:10051E0009E02FF0900108E03400F0A3E025E0F0B0
:10052E00900108E033F07F94122956EF90010AF003
:10053E00A3E4F07F957ED212295690010BE02FF0A6
:10054E0090010AE03400F0A3E025E0F090010AE00B
:10055E0033F07F98122956EF7B00FA7F997ED212E4
:10056E002956EB2FFBE43AFAEB25E0FBEA33FA7F50
:10057E009E122956EF90010EF0A3E4F07F9F7ED2DB
:10058E0012295690010FE02FF090010EE03400F08A
:10059E007F96122956EF900110F0A3E4F07F977E1C
:1005AE00D2122956900111E02FF0900110E0340084
:1005BE00F07F88122956900112EFF07F861229568D
:1005CE00900113EFF07F87122956900114EFF07F00
:1005DE00A0122956EF5402C313900115F07FA012FA
:1005EE002956EF5401F9900100E0FCA3E0FDA3E0D1
:1005FE00FEA3E0FF90016C120331900104E0FFA313
:10060E00E0900170CFF0A3EFF0900106E0FFA3E0C1
:10061E00900172CFF0A3EFF0900108E0FFA3E090FD
:10062E000174CFF0A3EFF090010AE0FFA3E0900178
:10063E0076CFF0A3EFF0AE02AF03A3EEF0A3EFF090
:10064E0090010EE0FFA3E090017ACFF0A3EFF090BF
:10065E000110E0FFA3E090017CCFF0A3EFF090013A
:10066E0012E090017EF0900113E090017FF0900176
:10067E0014E0900180F0900115E0900181F0AF013F
:05068E00A3EFF07F0165
:010693002244
:1012EB00E4900100F0F9FBFD7F507EA01228357DC4
:1012FB00020F1228350D0F122835E4FD0F12283579
:10130B007DF10F1228357F50122956EF4402FD7FD5
:10131B00501228357F647E0012286C7F0C7EA01241
:10132B002956EF540260097F0C122956EF5401FB2A
:10133B007F507EA0122956EF54FDFD7F50122835A9
:10134B007F02122956EF5480900100F07F717EC00E
:10135B00122956EF5460F96009900100E060030216
:10136B0013FA900195E0FC702AEBB401137D047F16
:10137B00507EA0122835E4FD7F55122835021497B4
:10138B00E4FD7F507EA01228357F551228357D0352
:10139B00021497EC64027026EBB4010DE4FD7F5050
:1013AB007EA01228357DF0800BE4FD7F507EA012CD
:1013BB0028357DE07F55122835E4FD021497900106
:1013CB0095E06401600302149CEBB4010DE4FD7F16
:1013DB00507EA01228357DFC800BE4FD7F507EA053
:1013EB001228357DEC7F55122835E4FD021497E960
:1013FB006420704C900195E0FC7013FD7F507EA033
:10140B001228357D037F551228357D3C807EECB448
:10141B000214E4FD7F507EA01228357D037F551208
:10142B002835E4FD8066900195E0640170637D04CE
:10143B007F507EA0122835E4FD7F55122835804C55
:10144B00E96440704C900195E0FC7011FD7F507E7B
:10145B00A01228357F551228357D3C802FECB40225
:10146B00127D047F507EA0122835E4FD7F55122893
:10147B00358019900195E0B40117E4FD7F507EA0F3
:10148B001228357D0C7F55122835E4FD7F57122825
:01149B00351B
:01149C00222D
:1023EC00900181E0640160237F057EC0122956EFC5
:1023FC007F0530E508122956EF54DF80087EC012A5
:10240C002956EF4420FD7F05122835900182E064A7
:10241C000160237F057EC0122956EF7F0530E4084A
:10242C00122956EF54EF80087EC0122956EF441043
:07243C00FD7F051228352287
:1026EC007D437F357EA01228357D210F1228357D44
:1026FC00040F1228357D320F1228357D100F122849
:10270C00357D430F1228357D210F1228357D040F9E
:0F271C001228357D320F1228357D100F02283517
:101E8B00900185E0FCB4010D7DFF7F437EA01228FD
:101E9B0035E4FD8024EC6402702590018AE0B401E6
:101EAB000D7DF57F437EA0122835E4FD800B7DE48C
:101EBB007F437EA01228357D800F7EC21228357D90
:101ECB00347F557EB01228357D9F7F5D1228357F7C
:101EDB005F1228357D8F7F611228357D9F7F6312BE
:101EEB0028357F651228357D347F771228357D9F05
:101EFB007F7F1228357F811228357D8F7F831228B3
:101F0B00357D9F7F851228357F8712283590018A72
:101F1B00E0704C7D347F441228357D9F7F4C122816
:101F2B00357F4E1228357D8F7F501228357D9F7F50
:101F3B00521228357F541228357D347F661228358E
:101F4B007D9F7F6E1228357F701228357D8F7F72B3
:101F5B001228357D9F7F741228357F761228352203
:10098900E4900104F0A3F0A3F07D0B7F347EA01264
:1009990028357F1412294DE4FCFDFE900100120355
:1009A900317FB27EB8122956E4FCFDFEC004C005B1
:1009B900C006C007900100E0FCA3E0FDA3E0FEA390
:1009C900E0FF780812031ED003D002D001D000EF57
:1009D9002BFFEE3AFEED39FDEC38FC9001001203D5
:1009E900317FB37EB8122956E4FCFDFEC004C00570
:1009F900C006C007900100E0FCA3E0FDA3E0FEA350
:100A0900E0FF780812031ED003D002D001D000EF16
:100A19002BFFEE3AFEED39FDEC38FC900100120394
:100A2900317D017F347EA0122835E47BE87A03F911
:100A3900F8900100E0FCA3E0FDA3E0FEA3E0FF12B3
:100A4900027B90018BE014601104702E7C007D0301
:100A5900120173900169E0FD800EEF25E0FFEE338E
:100A6900FE900169E0FD7C00120185900185E0FDA1
:100A79007C00120185900104EFF0900104E0240F3D
:100A8900F0E0C3941950037419F07D387F3A7EB0B1
:100A99001228357D010F122835900104E0FFC39417
:100AA900BB5015EFC39450400F7D187F3E12283577
:100AB9009001057401F08061900104E0FFC3945036
:100AC9005017EFC3942840117D087F3E7EB012284D
:100AD900359001057402F08040900104E0FFC39451
:100AE900285017EFC3941440117D287F3E7EB01221
:100AF90028359001057404F0801F900104E0FFC3BC
:100B090094145015EFC3940A400F7D387F3E7EB090
:100B19001228359001057408F07D107F3F7EB012D0
:100B29002831900105E0FF900104E08FF0A4AEF0B8
:100B39007803C333CE33CED8F9FF7C007D1B120175
:100B490085AD077F417EB01228357DDF7F0F7E900E
:100B59001228357F447EB0122956EF54BFFD7F44D9
:100B69001228657DFF7F0F7E901228357F447EB065
:100B7900122956EF4440FD7F441228357D1A122967
:100B890044E4FCFDFE9001901203317FB27EB8125D
:100B99002956E4FCFDFEC004C005C006C00790014B
:100BA90090E0FCA3E0FDA3E0FEA3E0FF78081203B8
:100BB9001ED003D002D001D000EF2BFFEE3AFEED9C
:100BC90039FDEC38FC9001901203317FB37EB812E5
:100BD9002956E4FCFDFEC004C005C006C00790010B
:100BE90090E0FCA3E0FDA3E0FEA3E0FF7808120378
:100BF9001ED003D002D001D000EF2BFFEE3AFEED5C
:100C090039FDEC38FC9001901203317D017F347E6F
:100C1900A0122835E47F04FE1DFC900190E0F8A3A2
:100C2900E0F9A3E0FAA3E0FB1201F0900106EFF06E
:010C39002298
:101A3C00E47BE87A03F9F8900190E0FCA3E0FDA3C5
:101A4C00E0FEA3E0FF12027BAC07EC75F0148424DB
:101A5C0004FBEC75F012842406FAEC75F006840491
:101A6C00900100F0EC75F00A8404A3F0EC75F00C16
:101A7C00842408A3F0EC75F01984A3F0EC75F00540
:101A8C0084F97F447EB0122956EF4480FD7F4412C6
:101A9C0028357D807EA01228357F49122835E4FD3B
:101AAC00FF7EC21228317F561228357D0F7F2012FF
:101ABC0028357DFF7F251228357F2C122835900183
:101ACC0002E0FD7F22122835900103E0FD0F122861
:101ADC0035AD010F122835AD027F2F122835AD031D
:101AEC000F1228357DAA0F122835AD027F5212280D
:101AFC0035AD030F1228357DAA0F12283590018AB7
:101B0C00E07028AD037F26122835AD020F12283560
:101B1C007DAA7F2E122835AD027F32122835AD03F7
:101B2C000F1228357DAA7F51122835EC75F00A84E6
:101B3C002408FD7F287EC2122835EB2AFF90010075
:101B4C00E02FFD7F2A1228357D107F1B1228357D52
:0B1B5C00507F1D1228357F2D02283518
:100C3A00900172E0FD7F0C7EC2122835900173E0AC
:100C4A00FD0F122835900180E0FF90017FE02FFD13
:100C5A007F3512283590017CE0FD7F0612283590F9
:100C6A00017DE0FD0F1228357D557F0F1228359042
:100C7A000185E064016003020D2F900196E024F8DB
:100C8A00604324086003020EC7900172E0FD7F38BA
:100C9A007EC2122835900173E0FD0F12280A9001D6
:100CAA008BE0FC700B7D267F171228357D3E807005
:100CBA00EC64016003020EC77D247F177EC21228EE
:100CCA00357D1C805B900172E0FD7F387EC2122860
:100CDA0035900173E0FD0F122835900180E0FF90F6
:100CEA00017FE02F14FD7F041228357D010F1228A1
:100CFA00351D7F081228350D12282C90018BE0FC37
:100D0A00700B7D267F171228357D248013EC640131
:100D1A006003020EC77D247F177EC21228357D1E0E
:100D2A007F12020EC4900172E0FEA3E07802CEC3E5
:100D3A0013CE13D8F9EEFD7F107EC212283590012A
:100D4A0072E0FEA3E07802CEC313CE13D8F9FD7F7A
:100D5A00117EC2122835900196E024F87003020E23
:100D6A000A24086003020EC7900172E0C313FEEE64
:100D7A00FD7F387EC2122835900172E0C313A3E0CA
:100D8A0013FD0F7EC212280A900172E0C313FEEE11
:100D9A00FD7F367EC2122835900172E0C313A3E0AC
:100DAA0013FD0F7EC212283590017FE0FD7F571296
:100DBA002835900180E0FD0F1228350F1228229065
:100DCA00018BE0FC70187DA67F171228357F4C1224
:100DDA0028357D3E7F121228357F5D020EC4EC64F1
:100DEA00016003020EC77DA47F177EC21228357FD9
:100DFA004C1228357D1C7F121228357F5D020EC4E5
:100E0A00900172E0C313FEEEFD7F387EC2122835D0
:100E1A00900172E0C313A3E013FD0F7EC2122835BE
:100E2A00900180E0FF90017FE02F14FD7F041228DB
:100E3A00357D010F1228351D7F081228350D12281D
:100E4A002C900172E0C313FEEEFD7F367EC212289B
:100E5A0035900172E0C313A3E013FD0F7EC212287E
:100E6A0035900180E0FF90017FE02F14FD7F57123B
:100E7A0028357D010F1228351D0F1228350D12282D
:100E8A002C90018BE0FC70177DA67F171228357F06
:100E9A004C1228357D247F121228357F5D801BEC89
:100EAA00B4011A7DA47F177EC21228357F4C1228FE
:0E0EBA00357D1E7F121228357F5D12283522ED
:101D8F00E4FD7F1C7EC21228357D807F141228351A
:101D9F00900169E0147003021E45146068146034EA
:101DAF00146003021E78900196E0FF90016AE04FE5
:101DBF00FD7F017EC2122835900196E0FF90016AE7
:101DCF00E04FFD7F561228357D017F021228357DA9
:101DDF00A0021E7490016AE04430FF900196E04F1C
:101DEF00FD7F017EC212283590016AE04430FF90DA
:101DFF000196E04FFD7F561228357D017F02122894
:101E0F00357D90806090016AE04420FF900196E05C
:101E1F004FFD7F017EC212283590016AE04420FFFA
:101E2F00900196E04FFD7F561228357D027F0212FA
:101E3F0028357D58802F90016AE04410FF9001965D
:101E4F00E04FFD7F017EC212283590016AE04410F9
:101E5F00FF900196E04FFD7F561228357D037F02DC
:101E6F00122835E4FD0F1228357F147E0012286CDE
:0C1E7F0090016BE0FD7F007EC202283560
:10258400E4FD7F277EB81228357DC07F007EB0121F
:102594002835E4FD7F8C12283512282C7D7F7F0698
:1025A4007E901228357D387F3A7EB0122835E4FDBE
:1025B4007F017EC21228357F561228357DBE7F0AE0
:0E25C4007E90122835E4FD7F057EC00228358A
:10239200900194E0FF7D011223AA7FC87E001228DB
:0823A2006C900194E0FFE4FDE2
:1023AA00AC05EF6008E4FD7F8C7EB080317D707FE4
:1023BA008C7EB01228357F467EA0122956EF4480C3
:1023CA00FD7F46122835EC7F486008122956EF44F3
:1023DA000480087EA0122956EF54FBFD7F4812287C
:0223EA0035229A
:1027680090019CE0FD7F0C7ED212283590019DE0FF
:10277800FD0F12283590019EE0FD0F1228359001BB
:102788009FE0FD0F1228359001A0E0FD0F122835BB
:092798009001A1E0FD0F022835BB
:102970007D4F7F1F7EB01228357D2E7F2E02283599
:1016320090019A7401F07F6412239EE4FD7F067E7E
:10164200C01228351222CF12276812261F1225D265
:1016520012288A1225841221681229707D017F3492
:101662007EA01228357F2C7E0112286C7D087F0611
:101672007EC01228357FF47E0112286CE490019717
:10168200F0900197E070311226ACEF602590019A3C
:10169200E0B4010E12216812261F9001977401F026
:1016A2008016121126EF60028008122043EF6008B4
:1016B20080009001977404F0900197E06404703206
:1016C20090019AE070271225847DFB7F077E90129D
:1016D20028351223927DFF7F077E901228359001D4
:1016E2009A7401F0E4A3F0122980122970E49001A7
:1016F20097F0900197E064017056121B67EF600942
:101702001224E51227D7EF70F11227D7EF7041129A
:10171200288A122535120EC8121F6BEF60061206B8
:10172200941225357F147E0012286C1227D7EF60A1
:10173200089001977401F0800612295DEF70E5129E
:10174200272B12283CE4900199F09001977402F043
:10175200900197E0B4021C7FFA7E0012286C1203FB
:101762006EEF600FE490019AF0900198F09001976B
:101772007403F0900197E06403600302168312275A
:10178200A11226EC121E8B120989121A3C900196A4
:10179200E070031224431212EB120C3A1223EC9063
:1017A2000196E0B40803122392121D8F122263E401
:0C17B200900197F090019B04F002168358
:1018E00057016C0001110C0378032000180016004A
:1018F0002A0520050010020E01014301690407605A
:1028AE00E4900183F0900194F090018A04F090017D
:1028BE0085F0E4900195F090018BF0900196F00276
:0228CE001632C0
:1028D000FFFF000000000000FFFF000000000000FC
:0E28E000FFFF000000000000FFFF00000000EE
:1022CF007D997F627E901228357DF07F317EA0123E
:1022DF0028357D207F2E7EB0122835E4FD7F297EA4
:1022EF00B01228357D487F307EB01228357D057FAE
:1022FF00327EB01228357D557F217EB81228357D6C
:10230F00407F3A7EB81228357D117F837ED2122806
:10231F00357D417F087EB81228357DF37F927EA0F0
:03232F000228354C
:1027D700E47DFE7F037E901228357F057E00122858
:1027E7006C7DFF7F037E901228357F0A7E001228BA
:1027F7006C7FB07EB8122956EF544070037F0122D8
:022807007F0050
:0128090022AC
:10261F007DBF7F927EB0122835E4FD7F217EB01200
:10262F0028357DC17F227EB01228357D097F287E17
:10263F00B01228357D2C7F257EB01228357D7F7F07
:10264F000F7E901228357F0A7E0012286C7DFF7F47
:0D265F000F7E901228357F0A7E0002286C45
:092980007DC07F217EB0022835E4
:101B67007D017F347EA01228357F0A7E0012286C03
:101B77007FB17EB8122956E4FCFDFE90018C12035A
:101B8700317FB27EB8122956E4FCFDFEC004C005C1
:101B9700C006C00790018CE0FCA3E0FDA3E0FEA314
:101BA700E0FF780812031ED003D002D001D000EF67
:101BB7002BFFEE3AFEED39FDEC38FC90018C120359
:101BC700317FB37EB8122956E4FCFDFEC004C00580
:101BD700C006C00790018CE0FCA3E0FDA3E0FEA3D4
:101BE700E0FF780812031ED003D002D001D000EF27
:101BF7002BFFEE3AFEED39FDEC38FC90018C120319
:101C070031E47F207E4EFDFC90018CE0F8A3E0F9E3
:101C1700A3E0FAA3E0FBC312030D40177F687EA77A
:101C27007D047C0090018CE0F8A3A3A3E0D312030A
:101C37000D40037F00227F887E017D037C00900199
:101C47008CE0F8A3E0F9A3E0FAA3E0FBC312030DCD
:101C570040047D4780227F007E777D017C009001D4
:101C67008CE0F8A3E0F9A3E0FAA3E0FBC312030DAD
:101C770050047D7780027D677F2A7EB01228357DEC
:0B1C8700427F2B7EB01228357F012227
:1024E5007D7F7F0F7E901228357F0A7E0012286C33
:1024F5007DFF7F0F7E901228357F0A7E0012286CA3
:102505007D147F147EB81228357F017E0012286C59
:102515007D947F147EB81228357F017E0012286CC9
:102525007DB47F147EB81228357F0A7E0002286CA0
:10272B007DFB7F107E901228357DFB7F077E9012FC
:10273B0028357DDF7F087E901228357F0A7E0012B8
:10274B00286C7DFF7F087E901228357DFF7F077EEA
:0D275B00901228357DFF7F107E90022835FA
:10283C007DFE7F0B7E901228357F0A7E0012286C5D
:10284C007D3F7F0A7E901228357F0A7E0012286C0D
:09285C007DBF7F0A7E9002283541
:10253500E4FD7F1F7EB0122835E4FD7F207EB012BA
:1025450028357DBF7F0F7E901228357DFE7F0D7E5D
:10255500901228357DEF7F037E901228357F0A7E05
:102565000012286C7DFF7F0D7E901228357DFF7F40
:0F2575000F7E901228357DFF7F037E9002283560
:100EC80074FF900100F0A3F0A3F0A3F0A3F0A3F047
:100ED80078067C017D01FB7A2879D07E007F081294
:100EE80000D3780E7C017D017BFF7A2879D87E00BB
:100EF8007F081200D378167C017D017BFF7A287960
:100F0800E07E007F081200D3E490011EF0A3F0A356
:100F1800F0A3F07FA07E867D01FC90018CE0F8A311
:100F2800E0F9A3E0FAA3E0FBC312030D40030211AA
:100F38001C7D0F7F277EB8122835E490011EF090A3
:100F4800011EE0FFC394047480948040030210F2F1
:100F5800EFC454F0FD7F297EB812283590011EE0B9
:100F6800C454F0FD7F2A7EB812283590011EE0C4D3
:100F780054F0FD7F2B7EB81228357D077F207EC078
:100F88001228357D017F207EC01228357F327E00F1
:100F980012286C7F247EC0122956EF547FFE9001E0
:100FA8001EE025E02406F582E43401F583EEF0A383
:100FB800E4F07F257EC012295690011EE025E0242A
:100FC80006F582E43401F583E48FF01201DA7F2616
:100FD8007EC0122956EF547FFE90011EE025E024C2
:100FE8000EF582E43401F583EEF0A3E4F07F277E6A
:100FF800C012295690011EE025E0240EF582E43443
:1010080001F583E48FF01201DA7F287EC012295699
:10101800EF547FFE90011EE025E02416F582E434AB
:1010280001F583EEF0A3E4F07F297EC012295690E3
:10103800011EE0FD25E02416F582E43401F583E481
:101048008FF01201DAED25E02406F582E43401F58B
:1010580083E0FEA3E0FF900100E0FCA3E0FDD3EFF6
:101068009DEE9C501290011EE0FD900100EEF0A351
:10107800EFF090011FEDF090011EE025E0240EF541
:1010880082E43401F583E0FEA3E0FF900102E0FC76
:10109800A3E0FDD3EF9DEE9C501290011EE0FD9061
:1010A8000102EEF0A3EFF0900120EDF090011EE0B8
:1010B80025E02416F582E43401F583E0FEA3E0FF81
:1010C800900104E0FCA3E0FDD3EF9DEE9C5012904C
:1010D800011EE0FD900104EEF0A3EFF0900121ED78
:1010E800F090011EE004F0020F4790011FE0C45485
:1010F800F0FD7F297EB8122835900120E0C454F015
:10110800FD7F2A7EB8122835900121E0C454F0FDF5
:0D1118007F2B8004E4FD7F277EB812283570
:0111250022A7
:101F6B0078007C017D017BFF7A2879E87E007F0673
:101F7B001200D37D077F207EC01228357D017F2084
:101F8B007EC01228357F647E0012286C7F247EC0B1
:101F9B00122956EF547F7F00FEC006C0077F257EB7
:101FAB00C0122956EFFDD0E02DFED0E03400900199
:101FBB0000F0A3CEF07F267EC0122956EF547F7F10
:101FCB0000FEC006C0077F277EC0122956EFFDD04A
:101FDB00E02DFED0E03400900102F0A3CEF07F287C
:101FEB007EC0122956EF547F7F00FEC006C0077FCC
:101FFB00297EC0122956EFFDD0E02DFED0E0340033
:10200B00900104F0A3CEF0D3900101E09400900175
:10201B0000E09400501C900103E09400900102E05A
:10202B009400500E900105E09400900104E09400A0
:07203B0040037F01227F003A
:01204200227B
:1020E8000228AEE493A3F8E493A34003F68001F238
:1020F80008DFF48029E493A3F85407240CC8C333F9
:10210800C4540F4420C8834004F456800146F6DFC7
:10211800E4800B01020408102040809017BEE47E82
:10212800019360BCA3FF543F30E509541FFEE493BC
:10213800A360010ECF54C025E060A840B8E493A383
:10214800FAE493A3F8E493A3C8C582C8CAC583CAAE
:10215800F0A3C8C582C8CAC583CADFE9DEE780BE66
:0119000000E6
:10000300E709F608DFFA8046E709F208DFFA803EDF
:1000130088828C83E709F0A3DFFA8032E309F608CC
:10002300DFFA8078E309F208DFFA807088828C8334
:10003300E309F0A3DFFA806489828A83E0A3F608E8
:10004300DFFA805889828A83E0A3F208DFFA804CC2
:1000530080D280FA80C680D4806980F28033801099
:1000630080A680EA809A80A880DA80E280CA803302
:1000730089828A83ECFAE493A3C8C582C8CCC5837A
:10008300CCF0A3C8C582C8CCC583CCDFE9DEE7804A
:100093000D89828A83E493A3F608DFF9ECFAA9F0C9
:1000A300EDFB2289828A83ECFAE0A3C8C582C8CC1F
:1000B300C583CCF0A3C8C582C8CCC583CCDFEADE38
:1000C300E880DB89828A83E493A3F208DFF980CC9A
:1000D30088F0EF60010E4E60C388F0ED2402B40493
:1000E3000050B9F582EB2402B4040050AF2323453A
:0600F3008223900053730C
:1000F900BB010689828A83E0225002E722BBFE0205
:09010900E32289828A83E4932237
:10011200BB010CE58229F582E5833AF583E02250A2
:1001220006E92582F8E622BBFE06E92582F8E222EC
:0D013200E58229F582E5833AF583E4932206
:10013F00BB010689828A83F0225002F722BBFE019F
:02014F00F32299
:10015100F8BB010DE58229F582E5833AF583E8F0E4
:10016100225006E92582C8F622BBFE05E92582C890
:02017100F22278
:10017300EF8DF0A4A8F0CF8CF0A428CE8DF0A42EA0
:02018300FE225A
:10018500BC000BBE0029EF8DF084FFADF022E4CC5E
:10019500F875F008EF2FFFEE33FEEC33FCEE9DEC27
:1001A500984005FCEE9DFE0FD5F0E9E4CEFD22ED6D
:1001B500F8F5F0EE8420D21CFEADF075F008EF2FB7
:1001C500FFED33FD4007985006D5F0F222C398FDA8
:0501D5000FD5F0EA2245
:1001DA00C5F0F8A3E028F0C5F0F8E58215827002B0
:0601EA001583E038F0224D
:1001F000E88FF0A4CC8BF0A42CFCE98EF0A42CFCAE
:100200008AF0EDA42CFCEA8EF0A4CDA8F08BF0A42B
:100210002DCC3825F0FDE98FF0A42CCD35F0FCEB8A
:100220008EF0A4FEA9F0EB8FF0A4CFC5F02ECD394F
:0F023000FEE43CFCEAA42DCE35F0FDE43CFC22BC
:10023F0075F008758200EF2FFFEE33FECD33CDCC76
:10024F0033CCC58233C5829BED9AEC99E5829840F9
:10025F000CF582EE9BFEED9AFDEC99FC0FD5F0D6D6
:10026F00E4CEFBE4CDFAE4CCF9A88222B800C1B900
:10027F000059BA002DEC8BF084CFCECDFCE5F0CB3E
:10028F00F97818EF2FFFEE33FEED33FDEC33FCEB77
:10029F0033FB10D703994004EB99FB0FD8E5E4F932
:1002AF00FA227818EF2FFFEE33FEED33FDEC33FC1F
:1002BF00C933C910D7059BE99A4007EC9BFCE99A13
:1002CF00F90FD8E0E4C9FAE4CCFB2275F010EF2F58
:1002DF00FFEE33FEED33FDCC33CCC833C810D70758
:1002EF009BEC9AE899400AED9BFDEC9AFCE899F893
:0E02FF000FD5F0DAE4CDFBE4CCFAE4C8F92226
:10030D00EB9FF5F0EA9E42F0E99D42F0E89C45F046
:01031D0022BD
:10031E00E8600FEFC333FFEE33FEED33FDEC33FC3D
:03032E00D8F122E1
:0C033100ECF0A3EDF0A3EEF0A3EFF0223F
:10033D00A8828583F0D083D0821203541203541205
:10034D000354120354E473E493A3C583C5F0C5832A
:10035D00C8C582C8F0A3C583C5F0C583C8C582C80A
:01036D00226D
:00000001FF
