:020000040800F2
:100000006804002001010008FF2D00088B21000872
:10001000FD2D00086D010008092F000800000000F8
:10002000000000000000000000000000A32E0008F7
:100030006F01000800000000A12E0008A52E000896
:100040001B0100081B0100081B0100081B01000820
:100050001B0100081B0100081B0100081B01000810
:100060001B0100081B0100081B0100081B01000800
:100070001B0100081B0100081B0100081B010008F0
:100080001B0100081B0100081B0100081B010008E0
:100090001B0100081B0100081B0100081B010008D0
:1000A0001B0100081B0100081B0100081B010008C0
:1000B0001B0100081B0100081B0100089921000812
:1000C0008D2100081B0100081B0100081B0100080E
:1000D0001B0100081B0100081B0100081B01000890
:1000E0001B0100081B0100081B010008DFF80CD0F1
:1000F00000F02AF800480047D92F000868040020C3
:100100000648804706480047FEE7FEE7FEE7FEE7B1
:10011000FEE7FEE7FEE7FEE7FEE7FEE7072F000843
:10012000ED000008D2B201E000F8012B491EFBD21D
:1001300070470022F6E710B513460A4604461946F2
:10014000FFF7F0FF204610BD064C074D06E0E068C3
:1001500040F0010394E8070098471034AC42F6D30E
:10016000FFF7C8FFC0340008E0340008FEE770471E
:1001700010B590F821100024022903D004218163D6
:1001800001243DE001680A6822F00E020A6001685D
:100190000A6822F001020A601A4A0168914201D1FC
:1001A000012121E0174A1432914201D110211BE0B4
:1001B000144A2832914201D1891515E0114A3C3286
:1001C000914201D189140FE00E4A5032914202D17E
:1001D0004FF4803108E00B4A6432914202D14FF46F
:1001E000801101E04FF08071064A083A5160012108
:1001F00080F82110002180F82010416B01B1884760
:10020000204610BD0800024090F821007047000011
:1002100070B5044600F082F90546601C02D004481F
:100220000078044400F07AF9401BA042FAD370BD74
:10023000040000202DE9F0430023374F0F2566E02E
:1002400001229A400A4060D023F00304E619D6F850
:1002500008809C074FEA147C05FA0CF909EA0804A7
:10026000DFF8B880404502D14FF0000816E0DFF813
:10027000B080404502D14FF001080FE0DFF8A480C4
:10028000404502D14FF0020808E0DFF89C8040456D
:1002900002D14FF0030801E04FF0040808FA0CF80F
:1002A000A04515D1D6F808C02CEA090CC6F808C03C
:1002B0001E4E346894433460341D2668964326608D
:1002C000241D266896432660241D266896432660D2
:1002D000FF2A01D8064601E000F104064FEA830434
:1002E00001D9A4F12004D6F800C005FA04F82CEADC
:1002F000080C4FF0040808FA04F84CEA080CC6F899
:1003000000C0C46824EA0204C46003F1010331FAA6
:1003100003F295D1BDE8F0830000014000080140E0
:10032000000C014000100140001401400004014095
:100330002DE9F84FDFF8B891002409F1040A0AF119
:10034000040B23460F270BF1040EC9E00125A5403D
:100350002A40AA427DD1674ED1F804C0ACEB060812
:10036000B44532D014DCBCF1030F3AD009DCBCF147
:10037000000F2AD0BCF1010F1CD0BCF1020F31D10B
:100380001DE0BCF1110F17D0BCF1120F2AD119E0FA
:10039000B8F5881F19D006DCB8F5803F15D0B8F540
:1003A000801F1FD111E0B8F5001F0ED0B8F5041F53
:1003B00018D10AE0CB6815E0CB681B1D12E0CB68B2
:1003C00008330FE0CB680C330CE08B682BB1012BAA
:1003D0004FF0080303D0456104E0042302E0056107
:1003E00000E00023FF2A01D8064601E000F10406E0
:1003F0004FEA840501D9A5F12005D6F8008007FA57
:1004000005FC28EA0C0803FA05F548EA0508C6F8D1
:1004100000804D68ED0062D5374DAE6946F00106AB
:10042000AE61AD6924F0030605F001050095334D7A
:1004300006EB050CDCF80850A607360F07FA06F89D
:1004400025EA0805DFF8B880404503D14FF00008E1
:1004500017E044E0DFF8AC80404502D14FF00108DE
:100460000FE0DFF8A480404502D14FF0020808E019
:10047000DFF89880404502D14FF0030801E04FF0CB
:10048000040808FA06F848EA0508CCF808804D6820
:10049000D9F80060ED034D4601D5164300E09643C0
:1004A0002E604D68DAF80060AD03554601D516435D
:1004B00000E096432E604D68DBF80060ED025D467B
:1004C00001D5164300E096432E604D68DEF80060CB
:1004D000AD02754601D5164300E096432E60641CBC
:1004E0000D682A46E5407FF431AFBDE8F88F000083
:1004F0000004014000001110001002400000014003
:1005000000080140000C01400010014000140140AF
:100510000AB1016170470904FBE7000001488068E7
:1005200070470000040000207047704710B50400B9
:1005300013D0242084F83D002068016821F00101D7
:100540000160204600F004FB0020206484F83D0098
:1005500044F8300FA073207310BD012010BD2DE9A9
:10056000F041016804464A694E6890F83E00002553
:10057000D743FA050BD4F243D20508D46FF4807246
:1005800001254A6121680A6842F400420A60B905FF
:1005900008D4F143C90505D422686FF4007145F011
:1005A00002055161790525D4F143C90522D4638D33
:1005B00094F83D10226B202808D13BB9212910D096
:1005C00029290ED0282901D1212A0AD022686FF4C6
:1005D0008061516145F00405102806D0402804D000
:1005E00008E0204602F008FA04E02068016841F4BF
:1005F00000710160380508D4F043C00505D42168B6
:100600006FF4006045F008054861002D07D0206CAC
:10061000284320642046BDE8F04101F021BEBDE83A
:10062000F0812DE9F041026800245168C76A90F812
:100630003E5090F83D60102D1CD0402D1AD0036C18
:10064000002B7ED053694FF02805DB439F0779D4F8
:10065000CF43BF0576D4016C01B1946990F83D3069
:1006600000219D430B466ED0C91E516180F83C307D
:10067000BDE8F081946953694FF42A0CDB435FEACB
:10068000C37E4FF02A4604D06745F1D0B742EFD081
:1006900010E0CF43BF050DD4C16A614501D10121EE
:1006A00003E0C16AB14201D10821C162BDE8F04155
:1006B00002F0B8B81E0716D4CE43B60513D4416C69
:1006C000C9B21161416B11B9826B002AD0D0896A1D
:1006D00019B9816B896A0029CAD00068416841F460
:1006E00000614160C4E79E0706D4CE43B60503D43B
:1006F000BDE8F04101F0EABFE443526864074FEA05
:1007000002521BD4002AB3DB1A0608D4CA4352058E
:1007100005D45A0705D5BDE8F04101F07BBF5A0763
:10072000A6D4C9438905A3D4102D03D0BDE8F04158
:1007300002F0BEB8BDE8F04101F032BF002A97DBFD
:1007400002E015E029E015E05A0608D4CA43520534
:1007500005D45A0705D5BDE8F04101F0ADBE5A07F2
:1007600086D4C943890583D4BDE8F04101F03BBE7E
:10077000946967E7556825F480655560E24354073E
:1007800000D50121120601D5828900E0028B80F894
:100790003C3092B2FFF7C9FE6AE7DC0606D4CC43D0
:1007A000A40503D4BDE8F04102F068B9212E27D09A
:1007B000292E25D05C0655D4CC43640552D45B0762
:1007C00052D590F83D10438D002B8BD01269436AAF
:1007D0001A70426A521C4262428D521E4285428DFC
:1007E000002AD9D12A29D7D101684A6822F4806227
:1007F0004A602221016380F83D5000F009FA37E792
:100800001C0623D4CC43640520D45B0720D590F884
:100810003D10438D002BBFD0436A1B781361426AA1
:10082000521C4262428D521E4285428D002AB3D133
:100830002929B1D101684A6822F480624A602121E5
:10084000016380F83D5000F0E4F911E75B07A3D4A1
:10085000C9438905A0D4418D00299DD0416A0978FA
:1008600011610AE05B0797D4C943890594D4418D8F
:10087000002991D01169426A1170416A491C416294
:10088000418D491E4185F3E67047000070B50400B4
:1008900025D094F83D00002520B984F83C5020462E
:1008A00000F078F9242084F83D002068016821F0E8
:1008B000010101602068016841F400410160206885
:1008C000016821F40041016000F0E2FA4D4A6168DC
:1008D000914201D84C4900E04C49884201D20120A4
:1008E00070BD4B492368B0FBF1F15E6826F03F060E
:1008F0000E435E606368934206D94FF49673594382
:100900004FF47A73B1FBF3F12368491C1E6A26F099
:100910003F06314319626168914210D84900401E78
:10092000B0FBF1F2521CC2F30B02042A01D20420E4
:1009300022E0B0FBF1F0401CC0F30B001CE0A26809
:10094000F2B301EBC10303EB0116431EB3FBF6F355
:100950005B1C43F480431B0549D092B301EBC102F9
:1009600002EB0111401EB0FBF1F0401CC0F30B0084
:1009700040F4804040F400402168CA694CF6FF739F
:100980009A431043C861D4E9071001432068026804
:1009900022F0C00211430160D4E903010143206841
:1009A000826848F2FF339A4311438160D4E905011C
:1009B00008432168CA6822F0FF021043C86001E0C2
:1009C0000EE016E02068016841F001010160256435
:1009D000202084F83D00256384F83E50002070BD3F
:1009E00001EB4106431EB3FBF6F35B1CB3E70120AA
:1009F000C2E701EB4101401EB0FBF1F0401CC0F327
:100A00000B00B7E7A086010080841E0000093D00AE
:100A100040420F00704770477047704770470000B2
:100A20002DE9FF4F83B09A46DDE9119793460446BE
:100A3000DDF84080FFF772FD054694F83D00202860
:100A40007FD11923012240492046009502F0EAF89F
:100A5000002876D194F83C00012872D0012084F857
:100A60003C0020680168C90703D1016841F0010119
:100A700001602068016821F400610160212084F890
:100A80003D00402084F83E0000262664C4F82480FF
:100A9000A4F82A90608D20852C48E062CDE900758D
:100AA00053465A462046049901F052FF70B930E08F
:100AB0002A463946204602F034F958B1206C042801
:100AC00004D12068016841F400710160012007B081
:100AD000BDE8F08F606A216800780861606A401C98
:100AE0006062218D491E89B22185628D521E628508
:100AF00022685369DB435B070BD469B1007810614E
:100B0000606A401C6062208D401E2085608D401E02
:100B10006085208D0028CBD12A463946204602F038
:100B20005BF80028CAD154F83D0B016841F400710C
:100B30000160202004F81E09E67766770020C6E7EA
:100B4000FFE70220C3E70000020010000000FFFFE3
:100B500010B500680C49884215D10C48C16921F4D0
:100B60000011C1610A4C40212046FFF763FB802140
:100B70002046FFF75FFB1F2000F0A4F8BDE81040FF
:100B8000202000F09FB810BD00540040001002402B
:100B9000000C014010B586B0002100910191029136
:100BA00003910068174988422AD1174CA06940F088
:100BB0000800A061A069694600F008000490C02008
:100BC000009012200190032003901048FFF7B0FB23
:100BD000E06940F40010E061E069002200F40010D8
:100BE000049011461F2000F08BF81F2000F07BF8C6
:100BF00000221146202000F083F8202000F073F836
:100C000006B010BD0054004000100240000C01402E
:100C100070477047024881680278114481607047CC
:100C200004000020074810B5016841F01001016080
:100C3000032000F085F8002000F006F800F024F80A
:100C4000002010BD0020024070B50D4D04464FF449
:100C50007A712878B1FBF0F00A490968B1FBF0F02D
:100C600000F0ECFA48B9102C07D200222146501EA1
:100C700000F046F800206C6070BD012070BD0000DF
:100C800004000020100000200C4808B5816941F0E4
:100C900001018161816901F001010091C16941F0A7
:100CA0008051C161C06900F08050009004484168E3
:100CB00021F0E06141F00071416008BD0010024088
:100CC0000000014000280DDB00F01F0201219140CF
:100CD0004009800000F1E020C0F88011BFF34F8F81
:100CE000BFF36F8F7047002809DB00F01F0201215E
:100CF00091404009800000F1E020C0F800117047E9
:100D0000F0B40E4B1B680C46C3F30223C3F1070576
:100D1000042D00D90425191D072901D2002300E064
:100D2000DB1E012606FA05F1491E214099409E402E
:100D3000761E16403143F0BC02F0E7B80CED00E03F
:100D4000064900F0070208684FF6FF03184040EA22
:100D50000220034A10430860704700000CED00E0D9
:100D60000000FA052DE9F0470F46050061D0434E1B
:100D7000306800F00700B84209D2306820F0070060
:100D800038433060306800F00700B84251D128681D
:100D90003B4C810712D5400703D5606840F4E06002
:100DA00060602878000703D5606840F46050606098
:100DB0006068A96820F0F000084360602878C007E8
:100DC00028D06868012810D02168022810D089072F
:100DD00000292EDA616821F0030101436160FFF709
:100DE0009DFB804641F288390DE021688903EFE7D9
:100DF0008901EDE7FFF792FBA0EB0801494502D915
:100E00000320BDE8F0876068696800F00C00B0EB73
:100E1000810FEFD1306800F00700B8420BD930687D
:100E200020F0070038433060306800F00700B84217
:100E300001D00120E5E72878400705D56068E9681A
:100E400020F4E060084360602878000706D56068F9
:100E5000296920F4605040EAC100606000F028F881
:100E60006168084AC1F30311515CC8400649086033
:100E700006480068FFF7E8FE0020C2E700200240B5
:100E800000100240A63400081000002008000020D6
:100E90000448054900684968044AC1F30221515CCD
:100EA000C84070471000002000100240B63400080F
:100EB00012A185B00FC98DE80F0014A0144A006874
:100EC00004905168134801F00C03042B10D0082B38
:100ED0000ED1C1F38343C9031DF803000AD551683D
:100EE00004AAC1F34041515C0A4A5043B0FBF1F0FF
:100EF00005B0704708494843FAE7000002030405BB
:100F0000060708090A0B0C0D0E0F10100102000055
:100F10000010024000127A0000093D002DE9F84F50
:100F2000040070D02078C04DC00749D06868C0F375
:100F30008100012807D06868C0F38100022809D128
:100F40006868C00306D52868800339D56068002822
:100F5000E7D035E06068B0F5803F0BD010B1B0F558
:100F6000A02F11D0286820F480302860286820F451
:100F7000802002E0286840F480302860606890B1EA
:100F8000FFF7CCFA06460AE0286840F48020286083
:100F9000F0E700BFFFF7C2FA801B642873D8286807
:100FA0008003F7D50CE0FFF7B9FA064605E000BF6D
:100FB000FFF7B4FA801B6428F0D828688003F7D4C0
:100FC00020789A4E80074FF001094FF0000839D57C
:100FD000686810F00C0F07D06868C0F38100022821
:100FE00009D16868C00306D42868800714D5206931
:100FF000012808D110E02069B0B1C6F80090FFF7D1
:101000008DFA074605E00AE1FFF788FAC01B0228BF
:10101000C4D828688007F7D52868616920F0F800EF
:1010200040EAC10028600DE0C6F80080FFF776FABC
:10103000074604E0FFF772FAC01B022823D828688D
:101040008007F7D4207800072CD57948A169D9B159
:10105000C0F80090FFF762FA074604E0FFF75EFA77
:10106000C01B02280FD8686A8007F7D571484FF473
:10107000FA510068B0FBF1F0009000BF0098411EEB
:101080000091FAD20EE080E0C0F80080FFF746FA47
:10109000074604E0FFF742FAC01B022875D8686AC9
:1010A0008007F7D42078400760D5E8690027C000A2
:1010B00008D4E86940F08050E861E869012700F051
:1010C000805000905C480168C90513D401688346CC
:1010D00041F480710160FFF721FA824606E000BF0B
:1010E000FFF71CFAA0EB0A0064284ED8DBF80000DA
:1010F000C005F5D5E06801280AD008B1052813D04D
:10110000286A20F001002862286A20F0040002E02A
:10111000286A40F001002862E06841F2883B98B1FB
:10112000FFF7FCF982460BE0286A40F004002862D1
:10113000EEE700BFFFF7F2F9A0EB0A0159455AD8D4
:10114000286A8007F6D50CE0FFF7E8F9824605E04B
:10115000FFF7E4F9A0EB0A0159454CD8286A80074B
:10116000F6D41FB1E86920F08050E861E06988B3E7
:101170006968C1F38101022944D00228C6F8608061
:1011800004D0FFF7CBF9044638E034E0FFF7C6F9A6
:10119000074604E0FFF7C2F9C01B02282BD82868D5
:1011A0008001F7D4206AB0F5803F05D16868A16856
:1011B00020F4003008436860D4E9080108436968F6
:1011C00021F4741108436860C6F86090FFF7A6F92F
:1011D000044606E025E000BFFFF7A0F9001B022847
:1011E00009D828688001F7D51BE000BFFFF796F902
:1011F000001B022802D90320BDE8F88F286880016F
:10120000F4D40EE00128F7D06868226A00F4803137
:10121000914204D1616A00F47010884201D001202B
:10122000EAE70020E8E70000001002400000424228
:1012300080044242100000200070004010B5401EA3
:10124000B0F1807F01D3012010BD4FF0E024606138
:101250000F21601701F059FE0020A06107202061D6
:10126000002010BD2DE9F05F0421084601F06CFE5E
:1012700043F60171022001F067FE8021022001F097
:1012800063FE0821062001F05FFE01214FF4847007
:1012900001F067FE01214FF4867001F062FE01212A
:1012A0004FF4287001F05DFE49F2CF014FF42B702E
:1012B00001F057FE0120FEF7ABFF03214FF4287029
:1012C00001F04FFE14214FF48C7001F04AFE41F200
:1012D00070714FF4907001F044FE00214FF4927051
:1012E00001F03FFE40F201114FF4947001F039FE1D
:1012F0004FF4803421464FF4987001F032FE4FF4E1
:10130000A0414FF49A7001F02CFE21464FF49C70DE
:1013100001F027FE21464FF49E7001F022FE214687
:101320004FF4A07001F01DFE21464FF4A27001F0B1
:1013300018FE251129464FF4A47001F012FE214633
:101340004FF4A67001F00DFE4FF4B07631464FF425
:10135000A87001F006FE01214FF4AA7001F001FE11
:10136000C8214FF4AC7001F0FCFD2A214FF4B47099
:1013700001F0F7FD40F20D4739464FF4B87001F027
:10138000F0FD81214FF4BE7001F0EBFD01214FF41F
:10139000C67001F0E6FD4FF4827841464FF4C87004
:1013A00001F0DFFD00214FF4D27001F0DAFD1521CC
:1013B0004FF4E07001F0D5FD00214FF4057001F00D
:1013C000D0FD80214FF4077001F0CBFD00214FF4D8
:1013D000097001F0C6FD06214FF4157001F0C1FD42
:1013E000DFF848944FF41670494601F0BAFDDFF873
:1013F00040A44FF41770514601F0B3FDDFF834B448
:101400004FF41870594601F0ACFD44F268214FF4D6
:10141000197001F0A6FD0F214FF41A7001F0A1FD23
:1014200051464FF41B7001F09CFD20214FF41C70BD
:1014300001F097FD1F214FF41D7001F092FDFE4950
:101440004FF41E7001F08DFD02214FF41F7001F06A
:1014500088FD01214FF48E7001F083FD01214FF4CE
:10146000427001F07EFD01214FF4437001F079FDDF
:1014700001214FF4946001F074FD49F2CF0140F274
:10148000AC4001F06EFD0120FEF7C2FE03214FF4D7
:10149000946001F066FD14214FF4467001F061FD87
:1014A00041F270714FF4487001F05BFD00214FF480
:1014B000497001F056FD40F201114FF44A7001F0FD
:1014C00050FD21464FF44C7001F04BFD4FF4A0410C
:1014D0004FF44D7001F045FD21464FF44E7001F080
:1014E00040FD21464FF44F7001F03BFD21464FF483
:1014F000507001F036FD21464FF4517001F031FD7E
:1015000029464FF4527001F02CFD21464FF45370E0
:1015100001F027FD31464FF4547001F022FD012106
:101520004FF4557001F01DFDC8214FF4567001F0C5
:1015300018FD2A214FF45A7001F013FD39464FF47B
:101540005C7001F00EFD81214FF45F7001F009FD28
:1015500001214FF4637001F004FD41464FF46470C3
:1015600001F0FFFC00214FF4697001F0FAFC152135
:101570004FF4707001F0F5FC0021F81D01F0F1FC52
:10158000802140F21C4001F0ECFC002140F224409C
:1015900001F0E7FC062140F2544001F0E2FC49462C
:1015A0004FF48B6001F0DDFC514640F25C4001F0ED
:1015B000D8FC59464FF48C6001F0D3FC44F268210A
:1015C00040F2644001F0CDFC0F214FF48D6001F03A
:1015D000C8FC514640F26C4001F0C3FC20214FF49E
:1015E0008E6001F0BEFC1F2140F2744001F0B9FC96
:1015F00091494FF48F6001F0B4FC022140F27C402D
:1016000001F0AFFC01214FF4477001F0AAFC4FF448
:1016100088751621284601F0A4FC4FF44478162161
:10162000404601F09EFC04214FF4A06001F08CFCC8
:1016300040F204540521204601F086FC0121204699
:1016400001F082FC0120FEF7E3FD01F0D9FB4FF42D
:10165000807631464FF4A04001F076FCF10145F26E
:101660000C0001F071FC31464FF4A14001F06CFC1C
:10167000032148F2104001F087FC3F2148F213405B
:1016800001F082FC312148F2F04001F07DFC0121A3
:1016900048F2F44001F078FC4FF49657394648F28E
:1016A000405001F051FC002148F2306001F06CFC28
:1016B00040F2537148F2316001F046FC022148F2D9
:1016C000706001F061FC394648F60C2001F03CFCEA
:1016D000FF2148F2025001F057FCFE2148F212505F
:1016E00001F052FC40F6BF71142001F02DFC40F6D1
:1016F000BF51162001F028FC012148F2E05001F012
:1017000043FC314648F2E35001F01EFC00214FF447
:101710000C4001F039FCFF2148F6014001F034FC97
:10172000FF2148F6024001F02FFCFF2148F603405C
:1017300001F02AFCFF2148F6044001F025FCFF21BE
:1017400048F6054001F020FCFF2148F6064001F074
:101750001BFC002148F6074001F016FC522148F618
:10176000084001F011FC622148F6094001F00CFC30
:10177000882148F60A4001F007FC882148F60B4012
:1017800001F002FC002148F60C4001F0FDFB88212D
:1017900048F60D4001F0F8FB882148F60E4001F0B4
:1017A000F3FB882148F60F4001F0EEFB1C2148F6C0
:1017B000104001F0E9FB152148F6114001F0E4FB6F
:1017C000012148F6124001F0DFFB032148F61340E7
:1017D00001F0DAFB802148F6144001F0D5FB00212E
:1017E00048F6154001F0D0FB002148F6164001F004
:1017F000CBFB782148F6174001F0C6FB0A2148F6DA
:10180000184001F0C1FB0D2148F6194001F0BCFB66
:10181000C92148F61A4001F0B7FBA02148F61B4049
:1018200001F0B2FB572148F61C4007E004022400F7
:1018300008000D00060014000500060001F0A4FBDE
:10184000472148F61D4001F09FFB982148F61E40B5
:1018500001F09AFB272148F61F4001F095FB122169
:1018600048F6204001F090FB482148F6214001F065
:101870008BFB4C2148F6224001F086FB002148F604
:10188000234001F081FB002148F6244001F07CFB5D
:10189000002148F6254001F077FB012148F626405B
:1018A00001F072FB012148F6274001F06DFB012198
:1018B00048F6284001F068FB012148F6294001F074
:1018C00063FB012148F62A4001F05EFB012148F646
:1018D0002B4001F059FB012148F62C4001F054FB4C
:1018E000012148F62D4001F04FFB012148F62E4022
:1018F00001F04AFB012148F62F4001F045FB012190
:1019000048F6304001F040FB012148F6314001F03B
:101910003BFB012148F6324001F036FB012148F63D
:10192000334001F031FB012148F6344001F02CFB3B
:10193000012148F6354001F027FB282148F63640C2
:1019400001F022FB3C2148F6374001F01DFB382115
:1019500048F6384001F018FBFA2148F6394001F00A
:1019600013FB402148F63A4001F00EFB802148F677
:101970003B4001F009FB0C2148F63C4001F004FB20
:10198000702148F63D4001F0FFFA642148F63E40E0
:1019900001F0FAFA322148F63F4001F0F5FA44210D
:1019A00048F6404001F0F0FA002148F6414001F0CD
:1019B000EBFA382148F6424001F0E6FA802148F679
:1019C000434001F0E1FA472148F6444001F0DCFAD7
:1019D000002148F6454001F0D7FA002148F646407C
:1019E00001F0D2FA182148F6474001F0CDFA28213B
:1019F00048F6484001F0C8FA3C2148F6494001F059
:101A0000C3FA382148F64A4001F0BEFAFA2148F6F6
:101A10004B4001F0B9FA402148F64C4001F0B4FACD
:101A2000802148F64D4001F0AFFA0C2148F64E40B7
:101A300001F0AAFA702148F64F4001F0A5FA64219E
:101A400048F6504001F0A0FA322148F6514001F02A
:101A50009BFA442148F6524001F096FA002148F6DC
:101A6000534001F091FA382148F6544001F08CFAC5
:101A7000802148F6554001F087FA472148F6564044
:101A800001F082FA002148F6574001F07DFA00216A
:101A900048F6584001F078FA182148F6594001F00C
:101AA00073FA002148F65A4001F06EFA002148F618
:101AB0005B4001F069FA002148F65C4001F064FAED
:101AC000FC2148F65D4001F05FFA002148F65E40D7
:101AD00001F05AFA542148F65F4001F055FA6F219F
:101AE00048F6604001F050FA732148F6614001F079
:101AF0004BFA682148F6624001F046FA692148F63F
:101B0000634001F041FA622148F6644001F03CFA7A
:101B1000612148F6654001F037FA2D2148F666400C
:101B200001F032FA552148F6674001F02DFA4821BC
:101B300048F6684001F028FA322148F6694001F081
:101B400023FA442148F66A4001F01EFA0A2148F6B9
:101B50006B4001F019FA002148F66C4001F014FACC
:101B6000002148F66D4001F00FFA002148F66E4062
:101B700001F00AFAFD2148F66F4001F005FA002154
:101B800048F6704001F000FA172148F6714001F064
:101B9000FBF93D2148F6724001F0F6F90F2148F6B5
:101BA000734001F0F1F98C2148F6744001F0ECF932
:101BB000172148F6754001F0E7F9002148F6764014
:101BC00001F0E2F90A2148F6774001F0DDF9202121
:101BD00048F6784001F0D8F9202148F6794001F024
:101BE000D3F9202148F67A4001F0CEF9202148F6B9
:101BF0007B4001F0C9F9202148F67C4001F0C4F98E
:101C0000202148F67D4001F0BFF9002148F67E40D2
:101C100001F0BAF9872148F67F4001F0B5F90221B9
:101C200048F6804001F0B0F9032148F6814001F008
:101C3000ABF9172148F6824001F0A6F9742148F665
:101C4000834001F0A1F9472148F6844001F09CF956
:101C5000042148F6854001F097F9132148F68640A3
:101C600001F092F9032148F6874001F08DF9022135
:101C700048F6884001F088F9072148F6894001F0CC
:101C800083F9062148F68A4001F07EF9012148F6E1
:101C90008B4001F079F9232148F68C4001F074F96A
:101CA000092148F68D4001F06FF9072148F68E4072
:101CB00001F06AF9012148F68F4001F065F96621CB
:101CC00048F6904001F060F9032148F6914001F098
:101CD0005BF90C2148F6924001F056F9002148F6D4
:101CE000934001F051F9302148F6944001F04CF94D
:101CF000002148F6954001F047F9802148F69640CA
:101D000001F042F98C2148F6974001F03DF90A2193
:101D100048F6984001F038F9D02148F6994001F092
:101D200033F9282148F69A4001F02EF93C2148F673
:101D30009B4001F029F9382148F69C4001F024F934
:101D4000FA2148F69D4001F01FF9402148F69E40D7
:101D500001F01AF9802148F69F4001F015F90C2195
:101D600048F6A04001F010F9702148F6A14001F0BA
:101D70000BF9642148F6A24001F006F9322148F639
:101D8000A34001F001F9442148F6A44001F0FCF819
:101D9000002148F6A54001F0F7F8382148F6A640A2
:101DA00001F0F2F8802148F6A74001F0EDF8472154
:101DB00048F6A84001F0E8F8002148F6A94001F0F3
:101DC000E3F8002148F6AA4001F0DEF8182148F6B1
:101DD000AB4001F0D9F8282148F6AC4001F0D4F826
:101DE0003C2148F6AD4001F0CFF8382148F6AE402E
:101DF00001F0CAF8FA2148F6AF4001F0C5F84021D9
:101E000048F6B04001F0C0F8802148F6B14001F03A
:101E1000BBF80C2148F6B24001F0B6F8702148F644
:101E2000B34001F0B1F8642148F6B44001F0ACF8D9
:101E3000322148F6B54001F0A7F8442148F6B640F3
:101E400001F0A2F8002148F6B74001F09DF83821D2
:101E500048F6B84001F098F8802148F6B94001F002
:101E600093F8472148F6BA4001F08EF8002148F671
:101E7000BB4001F089F8002148F6BC4001F084F82D
:101E8000182148F6BD4001F07FF8282148F6BE40F1
:101E900001F07AF83C2148F6BF4001F075F838218E
:101EA00048F6C04001F070F8FA2148F6C14001F050
:101EB0006BF8402148F6C24001F066F8802148F6F0
:101EC000C34001F061F80C2148F6C44001F05CF811
:101ED000702148F6C54001F057F8642148F6C64025
:101EE00001F052F8322148F6C74001F04DF8442184
:101EF00048F6C84001F048F8002148F6C94001F012
:101F000043F8382148F6CA4001F03EF8802148F6EF
:101F1000CB4001F039F8472148F6CC4001F034F8C5
:101F2000002148F6CD4001F02FF8002148F6CE40C0
:101F300001F02AF8182148F6CF4001F025F82821B1
:101F400048F6D04001F020F83C2148F6D14001F09D
:101F50001BF8382148F6D24001F016F8FA2148F66D
:101F6000D34001F011F8402148F6D44001F00CF8BC
:101F7000802148F6D54001F007F80C2148F6D640FC
:101F800001F002F8702148F6D74000F0FDFF64210F
:101F900048F6D84000F0F8FF322148F6D94000F06A
:101FA000F3FF442148F6DA4000F0EEFF002148F646
:101FB000DB4000F0E9FF382148F6DC4000F0E4FFA8
:101FC000802148F6DD4000F0DFFF472148F6DE4083
:101FD00000F0DAFF002148F6DF4000F0D5FF0021D5
:101FE00048F6E04000F0D0FF182148F6E14000F04C
:101FF000CBFF002148F6E24000F0C6FF002148F682
:10200000E34000F0C1FF002148F6E44000F0BCFFCF
:10201000002148F6E54000F0B7FF002148F6E64011
:1020200000F0B2FF002148F6E74000F0ADFF0021CC
:1020300048F6E84000F0A8FF002148F6E94000F02B
:10204000A3FF002148F6EA4000F09EFF002148F679
:10205000EB4000F099FF002148F6EC4000F094FFBF
:10206000002148F6ED4000F08FFF002148F6EE40D9
:1020700000F08AFF002148F6EF4000F085FF0021C4
:1020800048F6F04000F080FF002148F6F14000F0F3
:102090007BFF002148F6F24000F076FF002148F671
:1020A000F34000F071FF002148F6F44000F06CFFAF
:1020B000002148F6F54000F067FF002148F6F640A1
:1020C00000F062FF002148F6F74000F05DFF0021BC
:1020D00048F6F84000F058FF002148F6F94000F0BB
:1020E00053FF002148F6FA4000F04EFF002148F669
:1020F000FB4000F049FF002148F6FC4000F044FF9F
:10210000002148F6FD4000F03FFF002148F6FE4068
:1021100000F03AFF342148F6FF4000F035FF42213D
:1021200048F6022000F030FF022148F2435000F050
:102130002BFF102148F2445000F026FF012148F205
:102140004A5000F021FF40F61741042000F0FCFE49
:102150000021062000F0F8FE0621284600F001FFCD
:102160000621404600F0FDFE4FF47A70FEF750F86D
:102170000521204600F0E8FE2921204600F0E4FE7B
:10218000BDE8F05F0120FEF743B8FEE70148FEF727
:10219000E6B90000140000200148FEF742BA000032
:1021A0001400002038B5406A002190F83D202B4BE8
:1021B00046F2A8141B68B3FBF4F3C3EBC30303EBB1
:1021C000830300933BB15B1E009303681B689B0570
:1021D00005D5009BF6E7036C43F020030364436BD3
:1021E00003B19962836B03B1996203681C6824F49C
:1021F00080641C604185436B03B15963836B03B1F9
:10220000596303681C6824F001041C6090F83D4089
:102210002023602C0BD0282434EA02020FD080F84F
:102220003D3080F83E1000BFFEF72EFB38BD80F831
:102230003D3080F83E100164FEF776F938BD026843
:10224000136843F0010313600268136843F480636A
:102250001360016380F83D40E6E7000010000020B5
:1022600070B5044690F83D0094F83E10102901D056
:10227000402906D1222804D121680A6822F400628C
:102280000A60282131EA00024FF000054FF02006D5
:1022900026D021684968090505D4602803D084F850
:1022A0003D6084F83E50256320684168090537D5B4
:1022B000416821F400614160606B3D4990F8212044
:1022C000012A11D04163606BFDF752FF38B32068DB
:1022D000016821F00101016084F83D60606B1CE041
:1022E000256384F83D10DFE7A06B4163A06BFDF729
:1022F0003FFFA0B120684169C943490605D4006980
:10230000616A0870606A401C60622068016821F0A0
:102310000101016084F83D60A06B416B884710E0CB
:1023200094F83D10602910D04169C943490605D48D
:102330000069616A0870606A401C60622046FEF7AE
:10234000A3FA206CC1071CD115E084F83D60256418
:102350004169C943490605D40069616A0870606A29
:10236000401C60622068016821F001010160204684
:10237000FEF7DAF8E5E7810703D4410701D4000747
:1023800004D52068416821F4E061416094F83D0083
:10239000216C49070BD5282809D10648E06225633E
:1023A00084F83D6084F83E502046FEF733FB70BD54
:1023B000A52100080000FFFF01684A69D2435205C9
:1023C0000FD46FF480624A61002140F8301F202250
:1023D00042738173026942F00402026101730120B9
:1023E00070470020704710B5C26A438D0168042B06
:1023F00006D0438D032B08D0438D022B1DD012E055
:102400004A6822F480624A600CE04B6823F48063DF
:102410004B60042A06D0022A04D001680A6822F41C
:1024200080620A6001680969426A1170416A491C48
:102430004162418D491E418510BD012A30D0102ACC
:102440002ED0042A30D0022A2ED00A6842F400721C
:102450000A6001680969426A1170416A491C416257
:10246000428D521E4285026812690A70416A491CF7
:102470004162418D491E418501684A6822F44072DB
:102480004A60202180F83D1090F83E200021402A2B
:1024900080F83E100CD012210163FEF7BCFA10BD8B
:1024A0000A6822F48062D3E70A6842F48062CFE7C8
:1024B0000163FEF7B2FA10BD38B590F83D1022293D
:1024C00014D1418D032912D901680969426A11703A
:1024D000416A491C4162418D491E4185418D032954
:1024E00004D10068416821F48061416038BDC26A4E
:1024F000022AFBD0012901D00029F7D1274946F251
:10250000A81300220968B1FBF3F101EB81010091EE
:1025100001682023009C641E009422D00C68A4054E
:10252000F8D40C6824F480640C6001684C6824F4CE
:10253000E0644C6001680969446A2170416A491C81
:102540004162418D491E418580F83D3090F83E1032
:1025500080F83E2040291DD012210163FEF75BFA6E
:1025600038BD046C44F0200404644C6824F4E06436
:102570004C6001680969446A2170416A491C4162E2
:10258000418D491E418580F83D3080F83E20FEF7A0
:102590007BF938BD0263FEF740FA38BD1000002019
:1025A00010B5C16A90F83D20212A0BD1428D52B15D
:1025B000416A026809781161416A491C4162418D92
:1025C000491E418510BD00222023082910D0202952
:1025D0000ED011F5803F0BD001684C6824F4E06404
:1025E0004C601121016380F83E2080F83D300EE000
:1025F00001684C6824F4E0644C6001680C6844F4A1
:1026000000740C60026380F83D3080F83E20FEF7D5
:1026100003FA10BD10B590F83D1090F83E30C26A34
:10262000048DB4B1212903D0402B11D122290FD11F
:10263000418DE1B390F83E10402942D0416A0268D2
:1026400009781161416A491C4162418D491E4185E9
:1026500010BD2129E8D120230021082A13D0202AE7
:1026600011D012F5803F0ED00268546824F4E06463
:1026700054601122026380F83E1080F83D3000BFA4
:10268000FEF7CAF910BD0268546824F4E06454608F
:102690000268146844F400741460016380F83D30EB
:1026A00090F83E2080F83E10402AE9D100E002E098
:1026B000FEF7B4F910BD0068416821F48061416003
:1026C00010BDBDE8104000F0F3B8000078B590F8F8
:1026D0003E50C26A046B90F83D6000230168222ED0
:1026E00073D1066D0EB9402D6FD0056D1DB905690A
:1026F000B5F5404F1BD0458D95B3468D484D012E05
:1027000020D0448D022C4DD00C6844F480640C60C1
:1027100001684C68240579D5AA4273D0012A71D08A
:10272000082A6FD0102A6DD0202A6BD06EE04A693B
:102730008A6900920A6842F480720A60016D491C3D
:10274000016578BDAA4214D10A6822F480620A6049
:1027500001684A68120504D50A6822F4806217E00D
:10276000FFE74A698A6900920A6842F400720A60C7
:1027700050E0082A10D0202A0ED0122C0AD0042AA9
:1027800003D0022A01D0102AE6D10A6842F48062FE
:102790000A603BE0012ADFD00A6822F480620A6006
:1027A0000168DEE7042A11D0022A0FD0102A0DD0CA
:1027B0000C6844F400640C6001684C698C690094F6
:1027C0000C6824F480640C6008E025E00C6844F494
:1027D00080640C6001684C698969009101684C68EB
:1027E000240517D5AA4207D0012A05D0082A03D00C
:1027F000102A01D0202A0DD14A6842F480524A6042
:1028000008E0FFE74A6842F480524A6001684A697A
:1028100089690091036578BD48698869009078BD31
:102820000000FFFF90F83E10402910D00169B1F57B
:10283000804F19D0016DA9B3016D012910D1416CF0
:102840005FF0F10201F4407142EAD11106E0016D3E
:102850000029416C05D0C9B241F001010068016155
:10286000704701F0FE01F9E790F83D102129416C15
:1028700009D0C9B241F0010102681161416B29B16F
:10288000896A49B902E001F0FE01F5E7816B002990
:10289000E6D0896A0029E3D00068416841F400610C
:1028A00041607047FFE7416CF02201F44071CBE7D3
:1028B00010B590F83D10026D22B3026D012A2FD0A1
:1028C000026D022A1DD1222931D0428D0AB121295F
:1028D00033D0428D002A14D1212912D101684A68CF
:1028E00022F4E0624A6001680A6842F400720A60F9
:1028F00000210163202280F83D2080F83E10FEF781
:102900008DF810BDC16C0129816C02D0C1F3072183
:1029100008E00268C9B21161016D891C016510BD32
:10292000816CC9B202681161016D491CF6E700684B
:10293000016841F48071016010BD416A0268097844
:102940001161416A491C4162418D491E418510BD9A
:102950002DE9F843044600680D46DDE90897016853
:102960009846164641F4807101604B4600224FF0B4
:1029700001112046009700F055F948B12068006821
:10298000C00502D54FF4007020640320BDE8F88331
:10299000216805F0FE0008613B464A46154920467D
:1029A00000F074F988B920684169806900903A465E
:1029B0004946204600F0B5F948B1206C042804D1FE
:1029C0002068016841F4007101600120DEE7F5B282
:1029D000B8F1010F09D02168300A08613A4649462A
:1029E000204600F09EF90028E7D12068056100200C
:1029F000CCE70000020001002DE9F04190F83D40D5
:102A0000C26A002320261C4F01686FF48065082AE3
:102A100001D0202A01D1282C04D0212C16D04D61C0
:102A2000BDE8F081C7624A6822F4E0624A6001684A
:102A30004D6101680A6822F480620A60036380F8CD
:102A40003D6080F83E30FDF7E5FFE9E7C7622122EF
:102A5000026380F83D6080F83E304A6822F4E0620C
:102A60004A6001684D6101680A6822F480620A6068
:102A7000FEF7CFF8D4E700000000FFFFF8B590F8AC
:102A80003D6004460068416821F4E06141602068CF
:102A9000002541690091016841F001010160206851
:102AA000016821F48061016020684168090520D532
:102AB000474F222E48D02A2E46D0616B09684968BC
:102AC0006185618D19B1216C41F004012164416877
:102AD00021F400614160606BFDF796FB012808D08E
:102AE000606B4763606BFDF743FB10B1606B416B3C
:102AF0008847608D08B320684169C943490708D4F5
:102B00000069616A0870606A401C6062608D401EE6
:102B1000608520684169C943490608D40069616A33
:102B20000870606A401C6062608D401E6085608D28
:102B300018B1206C40F004002064206C00B32046E3
:102B4000BDE8F840FFF78CBBA16B09684968618557
:102B5000618D19B1216C41F004012164416821F4B7
:102B600000614160A06BFDF74FFB0128C1D0A06B55
:102B70004763A06BFDF7FCFA0028BAD0A06BB6E75C
:102B80002A2E06D12563282084F83D002046FEF732
:102B90003FF894F83D10202028290DD0216B2229E0
:102BA00001D0222E07D1256384F83D0084F83E50E1
:102BB0002046FEF72DF8F8BD0649E162256384F84A
:102BC0003D0084F83E502046FDF724FFF8BD00008C
:102BD000A52100080000FFFF70B516460D4604460B
:102BE0000DE02046FFF7E8FB08B1012070BD681C2E
:102BF00005D0FDF793FC801BA84207D835B12068AB
:102C00004069C0434007ECD4002070BD002044F868
:102C1000300F20216173A073216941F020012161EF
:102C20002073E2E72DE9F0471E4690460D46044624
:102C3000C1F30747DDF8209008E0701C06D0FDF7CF
:102C40006DFCA0EB0900B0420FD876B12068012FCF
:102C500018D0806925EA00000004000C14D000217F
:102C60004145EAD00020BDE8F087002044F8300F4D
:102C700020216173A073216941F02001216120733B
:102C80000120F0E74069E5E70121E9E72DE9F04798
:102C90009A4691460E46044600254FF02008C1F39F
:102CA000074725E020684069C043400514D42068E8
:102CB000016841F40071016021686FF4806048612F
:102CC000256384F83D8084F83E50206C40F0040079
:102CD000206484F83C501FE0B9F1FF3F08D0FDF7B5
:102CE0001DFCA0EB0A0149450CD8B9F1000F09D031
:102CF0002068012F13D0806926EA00000004000C30
:102D00000BD0CFE744F8305F84F80D80A5732069BD
:102D100040F02000206125730120BDE8F087406964
:102D2000EAE770B516460D4604460DE02046FFF76B
:102D300043FB08B1012070BD681C05D0FDF7EEFB18
:102D4000801BA84207D835B120684069C0430006FF
:102D5000ECD4002070BD002044F8300F20216173B6
:102D6000A073216941F0200121612073E2E7000096
:102D700030B585B000241F48009401940294039458
:102D8000816941F020018161816901F02001049194
:102D9000816941F008018161816901F008010491B4
:102DA000816941F0040181618069134D00F00400E4
:102DB0000122049091022846FDF7AAFB0022691522
:102DC0002846FDF7A5FB4FF4C0600121CDE90001C5
:102DD0000320CDE9021069462846FDF7A9FAA81597
:102DE000CDE90004694628460294FDF7A1FA05B032
:102DF00030BD000000100240000C0140FEE7FEE77D
:102E00002DE9F047DFF894A04FF0180940F252483E
:102E100000244FF6FF7740F2045500BF0AEB04018F
:102E20001AF804604978284607EA01210E43152163
:102E300000F08AF83146284600F086F80120FDF7B8
:102E4000E7F9A41CA4B24C45E8D39620FDF7E0F9BD
:102E5000B946124F0024183738193E5D40781521C5
:102E600009EA00200643284600F06EF8314628465D
:102E700000F06AF80120FDF7CBF9A41CA4B2444588
:102E8000EAD30521284600F05FF81121284600F01A
:102E90005BF8BDE8F0479620FDF7BAB93C30000872
:102EA00070477047FDF7B6BE30B58FB02821684631
:102EB000FDF73FF914210AA8FDF73BF901210804A9
:102EC000CDE900100024029402250491CDE90750B9
:102ED0004FF4E01009906846FEF720F808B172B68A
:102EE000FEE70F20CDE90A054FF48060CDE90C40E4
:102EF00002210AA80E94FDF735FF002801D072B612
:102F0000FEE70FB030BD7047FEE70907090E002845
:102F100004DB00F1E02080F80014704700F00F009F
:102F200000F1E02080F8141D704702E008C8121F6D
:102F300008C1002AFAD170477047002001E001C1A2
:102F4000121F002AFBD1704708B502238DF800102C
:102F5000090A8DF8011001466A461E2000F01CF88F
:102F600008BD08B50A0A8DF800108DF801200A0C7A
:102F70008DF80220090E8DF80310014604236A46DD
:102F80001E2000F009F808BD13B50146012301AA6F
:102F90001E2000F001F81CBDFEB51C461546074674
:102FA000FF200095CDE901400E460A46022339462E
:102FB0000748FDF735FD07490228087007D1044886
:102FC000FDF7B4FA0248FDF761FC3146E8E7FEBDC3
:102FD0001400002000000020FDF724FEFFF764FF2E
:102FE000FFF7C6FE124811494FF4804201601149B3
:102FF000416000218160C0E9031241618161C161CA
:103000000162FDF743FC08B172B6FEE76420FDF7EC
:10301000FFF8012251020848FDF77AFA4FF47A705E
:10302000FDF7F6F8FEF71EF9FEE700000054004039
:1030300014000020801A0600000C0140FF01FB0173
:10304000FF02FB01FF03FB01FF04FB01FF05FB0186
:10305000D731D87EFF00FB01BA033600B000D30899
:10306000D40ED50FD648D700D900FB01FFEE4000A3
:1030700041004200FB01FF01FB010155040C053A30
:10308000065007D00A0F0C060D7F0E7F0F701063DD
:10309000113C125C135A145A1560161517152300AB
:1030A0002400250026002700280044004500460093
:1030B0005BCA5C005D005E2D5F1B60D561F76CAB89
:1030C0006D44FF05FB01003F013F023F033F043811
:1030D000053F063F0719081D093F0A3F0B1B0C1748
:1030E0000D3F0E3F0F08103F1110123F133F143FCA
:1030F000153F163F173F183819181A1C1B3F1C3F65
:103100001D1A1E161F3F203F213F223F2306243F4A
:10311000250E263F273F5406550556045803591BD4
:103120005A1B5B015C325E185F20602B612C6218B9
:1031300063016432650066446711680169016A04CD
:103140006B2C6C086D08780079007E007F00800091
:1031500081008D008E008FC09073911092079611A0
:103160009714980099009A009B619C159D309F0FC1
:10317000A2B0A70AA900AA70ABDAACFFAEF4AF40C8
:10318000B07FB116B253B300B42AB53AB6F0BC85DD
:10319000BDF4BE33BF13C077C177C277C377C4779E
:1031A000C577C677C777C8AAC92ACA00CBAACC9266
:1031B000CD00CE18CF88D0AAD100D200D300D6023D
:1031C000ED00EE00EF70FA03FF00FF01FB01750058
:1031D00076007700782C79007A4F7B007C697D003F
:1031E0007E7F7F008092810082A3830084B385006C
:1031F00086C1870088F389018A1B8B018C5A8D0157
:103200008E8B8F0190D99102921693029418950299
:10321000964E9702988899029AAC9B029CDD9D037A
:103220009E019F03A02EA203A33CA403A54CA603CA
:10323000A75DA903AA70AB03AC88AD03AEA8AF032A
:10324000B0C8B103B2FFB300B400B500B62CB700EC
:10325000B84FB900BA69BB00BC7FBD00BE92BF00C9
:10326000C0A3C100C2B3C300C4C1C500C6F3C70137
:10327000C81BC901CA5ACB01CC8BCD01CED9CF0214
:10328000D016D102D218D302D44ED502D688D70296
:10329000D8ACD902DADDDB03DC01DD03DE2EDF038F
:1032A000E03CE103E24CE303E45DE503E670E703A1
:1032B000E888E903EAA8EB03ECC8ED03EEFFEF00B2
:1032C000F000F100F22CF300F44FF500F669F7007E
:1032D000F87FF900FA92FF02FB01000001A302004F
:1032E00003B3040005C1060007F30801091B0A0126
:1032F0000B5A0C010D8B0E010FD910021116120280
:1033000013181402154E16021788180219AC1A0267
:103310001BDD1C031D011E031F2E2003213C220365
:10332000234C2403255D26032770280329882A03BC
:103330002BA82D032FC8300331FF32003300340097
:10334000352C3600374F380039693A003B7F3D0055
:103350003F92400041A3420043B3440045C14600B0
:1033600047F34801491B4A014B5A4C014D8B4E0112
:103370004FD950025116520253185402554E56025C
:10338000588859025AAC5B025CDD5D035E015F0345
:10339000602E6103623C6303644C6503665D6703F2
:1033A000687069036A886B036CA86D036EC86F034D
:1033B00070FF710072007300742C7500764F7700F7
:1033C000786979007A7F7B007C927D007EA37F0004
:1033D00080B3810082C1830084F38501861B87014D
:1033E000885A89018A8B8B018CD98D028E168F02A7
:1033F00090189102924E93029488950296AC97028F
:1034000098DD99039A019B039C2E9D039E3C9F038C
:10341000A04CA203A35DA403A570A603A788A903DB
:10342000AAA8AB03ACC8AD03AEFFAF00B000B100BB
:10343000B22CB300B44FB500B669B700B87FB9007D
:10344000BA92BB00BCA3BD00BEB3BF00C0C1C100E7
:10345000C2F3C301C41BC501C65AC701C88BC90149
:10346000CAD9CB02CC16CD02CE18CF02D04ED10293
:10347000D288D302D4ACD502D6DDD703D801D90384
:10348000DA2EDB03DC3CDD03DE4CDF03E05DE10331
:10349000E270E303E488E503E6A8E703E8C8E9038C
:1034A000EAFFFF00FB010000000000000000010235
:1034B00003040607080900000000010203040000DD
:1034C000E034000800000020140000002A2F00084B
:1034D000F434000814000020540400003A2F0008BF
:1034E00000000000010000001000000000000000CB
:0434F0000024F400C0
:04000005080000ED02
:00000001FF
