:03000000023AB30E
:0C3AB300787FE4F6D8FD758107023AFA2E
:1032BE006100000000FFFFFFFFFFFF004348010019
:1032CE00571F0000291E01038000000009000000A6
:1032DE0000000000000000000000010101010101DA
:1032EE0001010101010101010101E8353858408059
:1032FE0032700E16D5080000000000160000000007
:10330E0000000000000000000000000000000000AF
:10331E00000000000000000000000000000000009F
:10332E00000000000000000000000000000000008F
:10333E00000001F902031240230904018301000079
:10334E0065030C000000E835383A408032700E16E6
:10335E00D50800000000001600000000000000006C
:10336E00000000000000000000000000000000004F
:10337E00000000000000000000000000000000003F
:10338E00000000000000000000000000000000002F
:10339E00000000000000000000000000000000001F
:1033AE00000000000000000000000000000000000F
:0433BE000000007893
:0B312900900100EBF0A3EAF0A3E9F036
:10313400900176E0FEA3E0FF900175E02FFF90017F
:1031440074E03EFE900179E02FFF900178E03E901C
:103154000103F0A3EFF090017FE0FF90017EE02FE8
:10316400FFE433FE900180E07C002FFFEC3E9001F1
:1031740005F0A3EFF0E47B0AFAF9F890016CE0FCA7
:10318400A3E0FDA3E0FEA3E0FF121D48900100E0D0
:10319400FBA3E0FAA3E0F9EF121C0CE47B0AFAF9B2
:1031A400F890016CE0FCA3E0FDA3E0FEA3E0FF12B5
:1031B4001D48E4FB7A01F9F8121D48900100E0FB78
:1031C400A3E0FAA3E0F9900001EF121C1E90017233
:1031D400E0FEA3E0900002121C1E900104E09000A7
:1031E40003121C1EEEC4F8540FC868FFAD0790010B
:1031F40003E02D900004121C1E90017DE090000558
:10320400121C1E900106E0900006121C1E90017C08
:10321400E0C4F8540FC868FFAC07900105E02C9097
:103224000007121C1E900175E0900008121C1E90ED
:103234000177E0900009121C1E90017EE0540FC437
:1032440054F0FFA3E0540F2F90000A121C1E9001AB
:1032540076E0C4F8540FC868FFAC07900174E07EB0
:10326400007806C333CE33CED8F92CFF90017EE02C
:10327400C4540F25E025E02FFFA3E0C4540F2F9082
:10328400000B121C1E900173E090000C121C1E9087
:10329400017DE090000D121C1E90017CE02D900039
:1032A4000E121C1E900181E025E04418FFA3E025C6
:0A32B400E025E04F900011021C1EFF
:0B3BC300900100EBF0A3EAF0A3E9F092
:103BCE00E4FFFE900100E0FBA3E0FAA3E0F98E8291
:103BDE00758300121BDF2FFF0EEEB47FE6C3E49F4A
:103BEE00FF900100E0FBA3E0FAA3E0F990007FEF65
:103BFE00121C1EE4FFFEEE2480FDE433FC90010057
:103C0E00E0FBA3E0FAA3E0F98D828C83121BDF2F79
:103C1E00FF0EEEB47FE0C3E49FFF900100E0FBA334
:0C3C2E00E0FAA3E0F99000FFEF021C1E7A
:103FE60000010000000000000001000100000001C7
:103FF60000010002000000020001000300000003AF
:1040060000020007000000070002000B0000000B82
:104016000002000F0000000F0004001F0000001F38
:1033C20044018C000000004401860000000044011A
:0533D200900000000066
:1042EA000501000511000510000529001536001505
:0242FA003A0088
:0533D7004201A2DF8E9F
:10365C00749D9001A2F07403A3F07B017D027A01AA
:04366C0079A27F15AB
:10367000900100EFF0A3EDF0A3EBF0A3EAF0A3E9D3
:01368000F059
:10368100E4A3F07D407F1C7EC21241AF900101E0B6
:103691006402704F7D0C7F187EC21241AF7D047FA2
:1036A100197EC21241AF900100E0FD7F347EC2124B
:1036B10041AF900102E0FBA3E0FAA3E0F9121BC6BF
:1036C100FD7F347EC21241AF900102E0FBA3E0FA1C
:1036D100A3E0F9900001121BDFFD7F347EC212418D
:1036E100AF80727D0E7F187EC21241AF900101E062
:1036F1002406FD7F197EC21241AF900100E0FD7FDB
:10370100347EC21241AF900101E0FD7F347EC212CE
:1037110041AFE4FD7F347EC21241AFE4900105F078
:10372100900101E0FF900105E0C39F502890010244
:10373100E0FBA3E0FAA3E0F9121BC6FD7F347EC2D1
:103741001241AF900103E475F001121CA79001052D
:10375100E004F080CB7F017E001241E6E4FD7F189A
:053761007EC20241AF31
:100003009001A274FFF0A37401F0FB123668900113
:10001300A274FBF0A37401F0FB1236689001A27482
:10002300FFF0A37402F07B01FD12366A9001A27403
:10003300FBF0A37401F0FB12366874FF12365E9076
:1000430001A274FBF0A37401F0FB1236689001A2C5
:1000530074FFF074041236649001A274FBF0A3746D
:1000630001F0FB1236689001A274FFF0A37405122D
:1000730036659001A274FBF0A37401F0FB1236689D
:100083009001A274D7F0A374311236659001A27463
:10009300D8F0A3747E1236657F647E001241E69029
:1000A30001A274FFF0E41236649001A274FBF0A382
:1000B3007401F0FB1236689001A274BA1236619093
:1000C30001A27436F0E41236649001A274B0F0E435
:1000D3001236649001A274D3F0A3740812366590AB
:1000E30001A274D4F0A3740E1236659001A274D5E4
:1000F300F0A3740F1236659001A274D6F0A374486E
:100103001236659001A274D7F0E41236649001A20E
:1001130074D9F0E41236649001A274FBF0A3740165
:10012300F0FB1236689001A274FFF0A374EE12364E
:10013300659001A27440F0E41236649001A2744108
:10014300F0E41236649001A27442F0E41236649033
:1001530001A274FBF0A37401F0FB1236689001A2B4
:1001630074FFF0A37401F0FB1236689001A274FBD4
:10017300F0A37401F0FB1236689001A27401F0A39E
:1001830074551236659001A27404F0A3740C1236F0
:10019300659001A27405F0A3743A1236659001A22A
:1001A3007406F0A374501236659001A27407F0A38D
:1001B30074D01236659001A2740AF0A3740F12363C
:1001C300659001A2740CF0A374061236659001A227
:1001D300740DF0A3747F1236659001A2740EF0A320
:1001E300747F1236659001A2740FF0A374701236F7
:1001F300659001A27410F0A374631236659001A296
:100203007411F0A3743C1236659001A27412F0A32A
:10021300745C1236659001A27413F0A3745A1236FB
:10022300659001A27414F0A3745A1236659001A26A
:100233007415F0A374601236659001A27416F0A3CE
:1002430014F07B017A0179A27D02FF1236709001CE
:10025300A27417F0A37415F07B017A0179A27D02D1
:10026300FF1236709001A27423F0E41236649001F9
:10027300A27424F0E41236649001A27425F0E4120F
:1002830036649001A27426F0E41236649001A274DD
:1002930027F0E41236649001A27428F0E412366465
:1002A3009001A27444F0E41236649001A27445F004
:1002B300E41236649001A27446F0E41236649001AD
:1002C300A2745BF0A374CA1236659001A2745CF049
:1002D300E41236649001A2745DF0E4123664900176
:1002E300A2745EF0A3742D1236659001A2745FF0C0
:1002F300A3741B1236659001A27460F0A374D51227
:1003030036659001A27461F0A374F712366590010B
:10031300A2746CF0A374AB1236659001A2746DF0F5
:10032300A374441236659001A274FFF0A3740512FE
:1003330036659001A274FBF0A37401F0FB123668DA
:10034300E49001A2F0A3743F1236659001A27401F8
:10035300F0A3743F1236659001A27402F0A3743FB8
:100363001236659001A27403F0A3743F12366590B0
:1003730001A27404F0A374381236659001A27405C7
:10038300F0A3743F1236659001A27406F0A3743F84
:100393001236659001A27407F0A3741912366590A2
:1003A30001A27408F0A3741D1236659001A27409AA
:1003B300F0A3743F1236659001A2740AF0A3743F50
:1003C3001236659001A2740BF0A3741B123665906C
:1003D30001A2740CF0A374171236659001A2740D78
:1003E300F0A3743F1236659001A2740EF0A3743F1C
:1003F3001236659001A2740FF0A37408123665904B
:1004030001A27410F0A3743F1236659001A2741117
:10041300F0A3141236659001A27412F0A3743F1274
:1004230036659001A27413F0A3743F1236659001F0
:10043300A27414F0A3743F1236659001A27415F0F0
:10044300A3743F1236659001A27416F0A3743F1291
:1004530036659001A27417F0A3743F1236659001BC
:10046300A27418F0A374381236659001A27419F0BF
:10047300A3141236659001A2741AF0A3741C1236E9
:10048300659001A2741BF0A3743F1236659001A21C
:10049300741CF0A3743F1236659001A2741DF0A37F
:1004A300741A1236659001A2741EF0A374161236E4
:1004B300659001A2741FF0A3743F1236659001A2E8
:1004C3007420F0A3743F1236659001A27421F0A347
:1004D300743F1236659001A27422F0A3743F123662
:1004E300659001A27423F0A374061236659001A2ED
:1004F3007424F0A3743F1236659001A27425F0A30F
:10050300740E1236659001A27426F0A3743F12365E
:10051300659001A27427F0A3743F1236659001A27F
:100523007454F0A374061236659001A27455F0A3B7
:1005330074051236659001A27456F0A37404123642
:10054300659001A274581236619001A27459F0A308
:10055300741B1236659001A2745AF0A3741B1236F1
:10056300659001A2745BF0A37401F0FB12366890EE
:1005730001A2745CF0A374321236659001A2745E1A
:10058300F0A374181236659001A2745FF0A374206F
:100593001236659001A27460F0A3742B1236659035
:1005A30001A27461F0A3742C1236659001A27462E7
:1005B300F0A374181236659001A27463F0A374015A
:1005C300F0FB1236689001A27464F0A37432123601
:1005D300659001A27465F0E41236649001A274661A
:1005E300F0A374441236659001A27467F0A37411EA
:1005F3001236659001A27468F0A37401F0FB123601
:10060300689001A27469F0A37401F0FB123668903C
:1006130001A2746AF0A374041236659001A2746B8C
:10062300F0A3742C1236659001A2746CF0A37408C5
:100633001236659001A2746DF0A3740812366590AA
:1006430001A27478F0E41236649001A27479F0E4A4
:100653001236649001A2747EF0E41236649001A213
:10066300747FF0E41236649001A27480F0E41236D1
:10067300649001A27481F0E41236649001A2748D37
:10068300F0E41236649001A2748EF0E412366490A2
:1006930001A2748FF0A374C01236659001A2749006
:1006A300F0A374731236659001A27491F0A37410D1
:1006B3001236659001A27492F0A374071236659006
:1006C30001A27496F0A374111236659001A2749777
:1006D300F0A374141236659001A27498F0E41236F4
:1006E300649001A27499F0E41236649001A2749AA2
:1006F300F0E41236649001A2749BF0A37461123685
:10070300659001A2749CF0A37415F07B017A0179C2
:10071300A27D02FF1236709001A2749DF0A3743083
:100723001236659001A2749FF0A3740F1236659080
:1007330001A274A2F0A374B01236659001A274A74B
:10074300F0A3740A1236659001A274A9F0E412367C
:10075300649001A274AAF0A374701236659001A28A
:1007630074ABF0A374DA1236659001A274ACF0A3F3
:1007730074FF1236659001A274AEF0A374F41236BE
:10078300659001A274AFF0A374401236659001A284
:1007930074B0F0A3747F1236659001A274B1F0A314
:1007A30074161236659001A274B2F0A37453123614
:1007B300659001A274B3F0E41236649001A274B49C
:1007C300F0A3742A1236659001A274B5F0A3743AAB
:1007D3001236659001A274B6F0A374F012366590D8
:1007E30001A274BCF0A374851236659001A274BD96
:1007F300F0A374F41236659001A274BEF0A37433AF
:100803001236659001A274BFF0A37413123665907B
:1008130001A274C0F0A374771236659001A274C16B
:10082300F0A374771236659001A274C2F0A37477B3
:100833001236659001A274C3F0A3747712366590E3
:1008430001A274C4F0A374771236659001A274C533
:10085300F0A374771236659001A274C6F0A374777F
:100863001236659001A274C7F0A3747712366590AF
:1008730001A274C8F0A374AA1236659001A274C9C8
:10088300F0A3742A1236659001A274CAF0E41236FA
:10089300649001A274CBF0A374AA1236659001A2EE
:1008A30074CCF0A374921236659001A274CDF0E477
:1008B3001236649001A274CEF0A3741812366590B8
:1008C30001A274CFF0A374881236659001A274D08C
:1008D300F0A374AA1236659001A274D1F0E4123623
:1008E300649001A274D2F0E41236649001A274D32E
:1008F300F0E41236649001A274D6F0A37402F07B84
:10090300017A0179A2FD7F151236709001A274ED70
:10091300F0E41236649001A274EEF0E412366490AF
:1009230001A274EFF0A374701236659001A274FAF9
:100933001236619001A274FFF0E41236649001A2B2
:1009430074FFF0A37401F0FB1236689001A274FBEC
:10095300F0A37401F0FB1236689001A27475F0E401
:100963001236649001A27476F0E41236649001A208
:100973007477F0E41236649001A27478F0A3742CB7
:100983001236659001A27479F0E41236649001A2E4
:10099300747AF0A3744F1236659001A2747BF0E46D
:1009A3001236649001A2747CF0A3746912366590C8
:1009B30001A2747DF0E41236649001A2747EF0A368
:1009C300041236659001A2747FF0E412366490013C
:1009D300A27480F0A374921236659001A27481F020
:1009E300E41236649001A27482F0A374A3123665F4
:1009F3009001A27483F0E41236649001A27484F02F
:100A0300A374B31236659001A27485F0E4123664C0
:100A13009001A27486F0A374C11236659001A2748A
:100A230087F0E41236649001A27488F0A374F31281
:100A330036659001A27489F0A37401F0FB12366845
:100A43009001A2748AF0A3741B1236659001A274FC
:100A53008BF0A37401F0FB1236689001A2748CF042
:100A6300A3745A1236659001A2748DF0A37401F039
:100A7300FB1236689001A2748EF0A3748B12366554
:100A83009001A2748FF0A37401F0FB1236689001F9
:100A9300A27490F0A374D91236659001A27491F0F8
:100AA300A37402F07B017A0179A2FD7F15123670DF
:100AB3009001A27492F0A374161236659001A27489
:100AC30093F0A37402F07B017A0179A2FD7F1512E2
:100AD30036709001A27494F0A374181236659001D5
:100AE300A27495F0A37402F07B017A0179A2FD7FD1
:100AF300151236709001A27496F0A3744E123665E7
:100B03009001A27497F0A37402F07B017A0179A299
:100B1300FD7F151236709001A27498F0A3748812A9
:100B230036659001A27499F0A37402F07B017A01F7
:100B330079A2FD7F151236709001A2749AF0A37406
:100B4300AC1236659001A2749BF0A37402F07B0192
:100B53007A0179A2FD7F151236709001A2749CF080
:100B6300A374DD12366512365C9001A2749EF0A365
:100B73007401F0FB1236689001A2749F12366190E3
:100B830001A274A0F0A3742E1236659001A274A280
:100B93001236619001A274A3F0A3743C12366590DF
:100BA30001A274A41236619001A274A5F0A3744C3F
:100BB3001236659001A274A61236619001A274A741
:100BC300F0A3745D1236659001A274A91236619088
:100BD30001A274AAF0A374701236659001A274ABDB
:100BE3001236619001A274ACF0A37488123665903A
:100BF30001A274AD1236619001A274AEF0A374A881
:100C03001236659001A274AF1236619001A274B0DE
:100C1300F0A374C81236659001A274B112366190C4
:100C230001A274B2F0A374FF1236659001A274B3EB
:100C3300F0E41236649001A274B4F0E412366490C6
:100C430001A274B5F0E41236649001A274B6F0A365
:100C5300742C1236659001A274B7F0E412366490D6
:100C630001A274B8F0A3744F1236659001A274B94F
:100C7300F0E41236649001A274BAF0A374691236D8
:100C8300659001A274BBF0E41236649001A274BCB7
:100C9300F0A3747F1236659001A274BDF0E412369E
:100CA300649001A274BEF0A374921236659001A2FF
:100CB30074BFF0E41236649001A274C0F0A374A36D
:100CC3001236659001A274C1F0E41236649001A259
:100CD30074C2F0A374B31236659001A274C3F0E436
:100CE3001236649001A274C4F0A374C112366590E5
:100CF30001A274C5F0E41236649001A274C6F0A395
:100D030074F31236659001A274C7F0A37401F0FB6B
:100D13001236689001A274C8F0A3741B1236659052
:100D230001A274C9F0A37401F0FB1236689001A20A
:100D330074CAF0A3745A1236659001A274CBF0A35F
:100D43007401F0FB1236689001A274CCF0A3748B8B
:100D53001236659001A274CDF0A37401F0FB123634
:100D6300689001A274CEF0A374D91236659001A2E3
:100D730074CFF0A37402F07B017A0179A2FD7F1591
:100D83001236709001A274D0F0A3741612366590D7
:100D930001A274D1F0A37402F07B017A0179A2FD60
:100DA3007F151236709001A274D2F0A37418123614
:100DB300659001A274D3F0A37402F07B017A0179E8
:100DC300A2FD7F151236709001A274D4F0A3744E65
:100DD3001236659001A274D5F0A37402F07B017AF8
:100DE3000179A2FD7F151236709001A274D6F0A38B
:100DF30074881236659001A274D7F0A37402F07B55
:100E0300017A0179A2FD7F151236709001A274D880
:100E1300F0A374AC1236659001A274D9F0A37402E6
:100E2300F07B017A0179A2FD7F151236709001A241
:100E330074DAF0A374DD1236659001A274DB123606
:100E4300619001A274DCF0A37401F0FB1236689088
:100E530001A274DD1236619001A274DEF0A3742E38
:100E63001236659001A274DF1236619001A274E01C
:100E7300F0A3743C1236659001A274E112366190BE
:100E830001A274E2F0A3744C1236659001A274E3DC
:100E93001236619001A274E4F0A3745D123665907A
:100EA30001A274E51236619001A274E6F0A3747096
:100EB3001236659001A274E71236619001A274E8BC
:100EC300F0A374881236659001A274E9123661901A
:100ED30001A274EAF0A374A81236659001A274EB20
:100EE3001236619001A274ECF0A374C812366590B7
:100EF30001A274ED1236619001A274EEF0A374FFA7
:100F03001236659001A274EFF0E41236649001A2E8
:100F130074F0F0E41236649001A274F1F0E4123636
:100F2300649001A274F2F0A3742C1236659001A2AE
:100F330074F3F0E41236649001A274F4F0A3744FD6
:100F43001236659001A274F5F0E41236649001A2A2
:100F530074F6F0A374691236659001A274F7F0E495
:100F63001236649001A274F8F0A3747F1236659070
:100F730001A274F9F0E41236649001A274FAF0A3AA
:100F830074921236659001A274FFF0A37402F07B91
:100F9300017A0179A2FD7F151236709001A274FBCC
:100FA300F0A37401F0FB123668E49001A2F012364C
:100FB300649001A27401F0A374A31236659001A298
:100FC3007402F0E41236649001A27403F0A374B3C4
:100FD3001236659001A27404F0E41236649001A203
:100FE3007405F0A374C11236659001A27406F0E48F
:100FF3001236649001A27407F0A374F3123665905D
:1010030001A27408F0A37401F0FB1236689001A2E8
:101013007409F0A3741B1236659001A2740AF0A33D
:101023007401F0FB1236689001A2740BF0A3745A9A
:101033001236659001A2740CF0A37401F0FB123612
:10104300689001A2740DF0A3748B1236659001A20F
:10105300740EF0A37401F0FB1236689001A2740FB2
:10106300F0A374D91236659001A27410F0A3740230
:10107300F07B017A0179A2FD7F151236709001A2EF
:101083007411F0A374161236659001A27412F0A3C2
:101093007402F07B017A0179A2FD7F1512367090FC
:1010A30001A27413F0A374181236659001A274148C
:1010B300F0A37402F07B017A0179A2FD7F15123649
:1010C300709001A27415F0A3744E1236659001A2BC
:1010D3007416F0A37402F07B017A0179A2FD7F15E7
:1010E3001236709001A27417F0A3748812366590BB
:1010F30001A27418F0A37402F07B017A0179A2FDB6
:101103007F151236709001A27419F0A374AC1236D5
:10111300659001A2741AF0A37402F07B017A01793D
:10112300A2FD7F151236709001A2741BF0A374DD2B
:101133001236659001A2741C1236619001A2741DCF
:10114300F0A37401F0FB1236689001A2741E1236EC
:10115300619001A2741FF0A3742E1236659001A250
:1011630074201236619001A27421F0A3743C1236EC
:10117300659001A274221236619001A27423F0A338
:10118300744C1236659001A274241236619001A248
:101193007425F0A3745D1236659001A2742612368D
:1011A300619001A27427F0A374701236659001A2B6
:1011B30074281236619001A27429F0A37488123640
:1011C300659001A2742A1236619001A2742BF0A3D8
:1011D30074A81236659001A2742D1236619001A293
:1011E300742FF0A374C81236659001A274301236BE
:1011F300619001A27431F0A374FF1236659001A2CD
:101203007432F0E41236649001A27433F0E41236BF
:10121300649001A27434F0E41236649001A2743530
:10122300F0A3742C1236659001A27436F0E41236E2
:10123300649001A27437F0A3744F1236659001A233
:101243007438F0E41236649001A27439F0A374691F
:101253001236659001A2743AF0E41236649001A24A
:10126300743BF0A3747F1236659001A2743DF0E4E1
:101273001236649001A2743FF0A374921236659003
:1012830001A27440F0E41236649001A27441F0A309
:1012930074A31236659001A27442F0E4123664908E
:1012A30001A27443F0A374B31236659001A274448F
:1012B300F0E41236649001A27445F0A374C11236AF
:1012C300659001A27446F0E41236649001A274475B
:1012D300F0A374F31236659001A27448F0A374016D
:1012E300F0FB1236689001A27449F0A3741B123606
:1012F300659001A2744AF0A37401F0FB1236689062
:1013030001A2744BF0A3745A1236659001A2744C77
:10131300F0A37401F0FB1236689001A2744DF0A3A0
:10132300748B1236659001A2744EF0A37401F0FB26
:101333001236689001A2744FF0A374D912366590E7
:1013430001A27450F0A37402F07B017A0179A2FD2B
:101353007F151236709001A27451F0A374161236E1
:10136300659001A27452F0A37402F07B017A0179B3
:10137300A2FD7F151236709001A27453F0A3741866
:101383001236659001A27454F0A37402F07B017AC3
:101393000179A2FD7F151236709001A27455F0A356
:1013A300744E1236659001A27456F0A37402F07B5A
:1013B300017A0179A2FD7F151236709001A274584B
:1013C300F0A374881236659001A27459F0A37402D5
:1013D300F07B017A0179A2FD7F151236709001A28C
:1013E300745AF0A374AC1236659001A2745BF0A337
:1013F3007402F07B017A0179A2FD7F151236709099
:1014030001A2745CF0A374DD1236659001A2745DD1
:101413001236619001A2745EF0A37401F0FB1236E0
:10142300689001A2745F1236619001A27460F0A308
:10143300742E1236659001A274611236619001A276
:101443007462F0A3743C1236659001A27463123681
:10145300619001A27464F0A3744C1236659001A2EA
:1014630074651236619001A27466F0A3745D12363E
:10147300659001A274671236619001A27468F0A3AB
:1014830074701236659001A274691236619001A2DC
:10149300746AF0A374881236659001A2746B1236D5
:1014A300619001A2746CF0A374A81236659001A236
:1014B300746D1236619001A2746EF0A374C8123673
:1014C300659001A2746F1236619001A27470F0A34B
:1014D30074FF1236659001A27471F0E412366490C1
:1014E30001A27472F0E41236649001A27473F0E402
:1014F3001236649001A27474F0A3742C12366590B2
:1015030001A27475F0E41236649001A27476F0A31C
:10151300744F1236659001A27477F0E4123664902A
:1015230001A27478F0A374691236659001A27479EC
:10153300F0E41236649001A2747AF0A3747F123639
:10154300659001A2747BF0E41236649001A2747C6E
:10155300F0A374921236659001A2747DF0E4123602
:10156300649001A2747EF0A374A31236659001A265
:10157300747FF0E41236649001A27480F0A374B314
:101583001236659001A27481F0E41236649001A2D0
:101593007482F0A374C11236659001A27483F0E4DF
:1015A3001236649001A27484F0A374F3123665902A
:1015B30001A27485F0A37401F0FB1236689001A2B6
:1015C3007486F0A3741B1236659001A27487F0A38E
:1015D3007401F0FB1236689001A27488F0A3745A68
:1015E3001236659001A27489F0A37401F0FB1236E0
:1015F300689001A2748AF0A3041236659001A27464
:101603008BF0A37401F0FB1236689001A2748CF086
:10161300A374D91236659001A2748DF0A37402F0FD
:101623007B017A0179A2FD7F151236709001A274B5
:101633008EF0A374161236659001A2748FF0A37412
:1016430002F07B017A0179A2FD7F151236709001B9
:10165300A27490F0A374181236659001A27491F0ED
:10166300A37402F07B017A0179A2FD7F1512367013
:101673009001A27492F0A3744E1236659001A27485
:1016830093F0A37402F07B017A0179A2FD7F151216
:1016930036709001A27494F0A37488123665900199
:1016A300A27495F0A37402F07B017A0179A2FD7F05
:1016B300151236709001A27496F0A374AC123665BD
:1016C3009001A27497F0A37402F07B017A0179A2CE
:1016D300FD7F151236709001A27498F0A374DD1289
:1016E30036659001A274991236619001A2749AF042
:1016F300A37401F0FB1236689001A2749B12366149
:101703009001A2749CF0A3742E12366512365C907D
:1017130001A2749EF0A3743C1236659001A2749FDB
:101723001236619001A274A0F0A3744C1236659036
:1017330001A274A21236619001A274A3F0A3745D96
:101743001236659001A274A41236619001A274A5A9
:10175300F0A374701236659001A274A612366190DC
:1017630001A274A7F0A374881236659001A274A92C
:101773001236619001A274AAF0A374A81236659080
:1017830001A274AB1236619001A274ACF0A374C8C9
:101793001236659001A274AD1236619001A274AE47
:1017A300F0A374FF1236659001A274AFF0E4123611
:1017B300649001A274B0F0E41236649001A274B193
:1017C300F0E41236649001A274B2F0A3742C1236C2
:1017D300659001A274B3F0E41236649001A274B46C
:1017E300F0A3744F1236659001A274B5F0E412367B
:1017F300649001A274B6F0A374691236659001A2D5
:1018030074B7F0E41236649001A274B8F0A3747F45
:101813001236659001A274B9F0E41236649001A205
:1018230074BAF0A374921236659001A274BBF0E40B
:101833001236649001A274BCF0A374A312366590AF
:1018430001A274BDF0E41236649001A274BEF0A349
:1018530074B31236659001A274BFF0E4123664903B
:1018630001A274C0F0A3041236659001A274C1F002
:10187300E41236649001A274C2F0A374F3123665C5
:101883009001A274C3F0A37401F0FB1236689001B7
:10189300A274C4F0A3741B1236659001A274C5F040
:1018A300A37401F0FB1236689001A274C6F0A3740E
:1018B3005A1236659001A274C7F0A37401F0FB12AB
:1018C30036689001A274C8F0A3748B123665900138
:1018D300A274C9F0A37401F0FB1236689001A274DC
:1018E300CAF0A374D91236659001A274CBF0A37425
:1018F30002F07B017A0179A2FD7F15123670900107
:10190300A274CCF0A374161236659001A274CDF0C4
:10191300A37402F07B017A0179A2FD7F1512367060
:101923009001A274CEF0A374181236659001A274CC
:10193300CFF0A37402F07B017A0179A2FD7F151227
:1019430036709001A274D0F0A3744E1236659001E4
:10195300A274D1F0A37402F07B017A0179A2FD7F16
:10196300151236709001A274D2F0A37488123665F2
:101973009001A274D3F0A37402F07B017A0179A2DF
:10198300FD7F151236709001A274D4F0A374AC12CB
:1019930036659001A274D5F0A37402F07B017A013D
:1019A30079A2FD7F151236709001A274D6F0A3744C
:1019B300DD1236659001A274D71236619001A274CC
:1019C300D8F0A37401F0FB1236689001A274D91207
:1019D30036619001A274DAF0A3742E123665900179
:1019E300A274DB1236619001A274DCF0A3743C1282
:1019F30036659001A274DD1236619001A274DEF0A7
:101A0300A3744C1236659001A274DF123661900103
:101A1300A274E0F0A3745D1236659001A274E11222
:101A230036619001A274E2F0A374701236659001DE
:101A3300A274E31236619001A274E4F0A3748812D5
:101A430036659001A274E51236619001A274E6F046
:101A5300A374A81236659001A274E712366190014F
:101A6300A274E8F0A374C81236659001A274E91257
:101A730036619001A274EAF0A374FF1236659001F7
:101A8300A274FFF0E41236649001A274FBF0A37415
:101A930001F0FB1236687FC87E001241E69042EDEA
:101AA300E493FF7BFF7A4279EE7D021236707F78F2
:101AB3007E001241E69042F3E493FF7BFF7A427982
:0D1AC300F47D021236707F647E000241E661
:103D0900FFFF0000000000000000000000000000AC
:103D1900000000000000000000000000000000009A
:103D2900FFFF00000000000000000000000000008C
:103D3900000000000000000000000000000000007A
:103D4900FFFF00000000000000000000000000006C
:103D5900000000000000000000000000000000005A
:0933DC0046019C01000000000301
:104184001241AF90017FE0FD7F041241AF900180A6
:10419400E0FD0F1241AF7F0890017EE0FD1241AFB8
:0B41A4007D0F0F1241AF0F1241AF0F53
:0741AF008F828E83EDF022E8
:1042BC007D017F347EA01241AF7F0A7E001241E661
:0442CC007FB17EB888
:0742D0008F828E83E0FF22C4
:0741DF001241AF7F017E00D9
:1041E600EF1FAA0670011E4A6013E4FCFDC3ED949E
:0D41F6005EEC940150EA0DBD00010C80F05C
:014203002298
:103F4C00900183E060097B017A0079361231297B7C
:103F5C00017A007900123BC37D037F8E7EC0124133
:103F6C00AFE4FBFA74002BF58274003AF583E0FDA4
:103F7C007F907EC01241AF0BBB00010AE4B503E495
:0D3F8C00EAB401E07D027F8E7EC00241AFED
:103B3F007D137F557E901241AF7D807F571241AF2D
:103B4F00E4FD0F1241AF7D400F1241AF7D030F1205
:103B5F0041AF7DFF0F1241AF7D987F5D1241AF7D69
:103B6F00FF7F511241AF1241A67D130F1241AF7D5E
:103B7F00FF0F1241AF7D800F1241AFE4FD0F1241D5
:103B8F00AF7D400F1241AF7D030F1241AF7D7F0F0D
:103B9F001241AF7DFF0F1241AF7D980F1241AF7DE4
:103BAF00FF1241A61241A60F1241AF7D207F2E7E3C
:043BBF00B00241AF60
:103DC0007D077F8E7EB01241AF7D770F1241AF7DB0
:103DD000F17F147ED11241AF7D1F7F567E9012413C
:103DE000AF7D987F621241AF7F147ED11242D0EF37
:103DF0004408FD7F141241AF1242D0EF54FBFD7F07
:103E0000141241AF1F1242D0EF54FEFD7F13024146
:013E1000AF02
:10426800EF7F147ED160081242D0EF54F780061217
:0C42780042D0EF4408FD7F141241AF2239
:10428400EF7F147ED160081242D0EF4404800612FE
:0C42940042D0EF54FBFD7F141241AF221A
:1042A000EF7F137ED160081242D0EF4401800612E6
:0C42B00042D0EF54FEFD7F131241AF22FC
:103C3A00E4FDFF7EB01241AF7D077F8C1241AF7D5C
:103C4A00770F1241AF90018AE0FCB401057D070F9E
:103C5A008009EC70097D777F8E7EB01241AF7D7747
:103C6A007F8F7EB01241AF7D027F137ED11241AFAA
:103C7A007D190F1241AF7DC20F1241AF7D207F1017
:103C8A001241AF7DFF7F291241AB7D7F7F067E9077
:0C3C9A001241DF7DFF7F067E900241AFEB
:10411B00900100121E0A000000001242BCAD077F86
:10412B00127ED21241AF7FB27EB81242D0AD077F62
:10413B00147ED21241AF7FB37EB81242D0AD077F4F
:06414B00157ED20241AF17
:10402600900100121E0A00000000900104121E0AF0
:10403600000000007D357F087EB81241AF7D017F0C
:10404600347EA01241AF7F0A7E001241E67FB07E29
:0F405600B81242D0EF5401B401037F01227F0062
:014065002238
:103A1A007F8B7ED21242D0EF7D00FC7F8C7ED21249
:103A2A0042D0ED2FFDE43CFCED25E0FDEC33FC7FBC
:103A3A00961242D0EF900102F0A3E4F07F977ED273
:103A4A001242D0900103E02FF0900102E03400F01E
:103A5A007F0C7EC21242D0EF900100F0A3E4F07F07
:103A6A000D7EC21242D0900101E02FF0900100E0D9
:103A7A003400F07F061242D0EF7B00FA7F077EC245
:103A8A001242D0EB2FFBE43AFAAE04AF05900100E4
:103A9A00E0B5060FA3E0B5070AA3E06A7003A3E046
:083AAA006B60037F01227F0025
:013AB20022F1
:102BF300900100121E0A00000000900104121E0A38
:102C0300000000001242BCE4FCFDFE900100121D16
:102C1300FE7FB27EB81242D0E4FCFDFEC004C005C4
:102C2300C006C007900100E0FCA3E0FDA3E0FEA303
:102C3300E0FF7808121DEBD003D002D001D000EFE3
:102C43002BFFEE3AFEED39FDEC38FC900100121D2E
:102C5300FE7FB37EB81242D0E4FCFDFEC004C00583
:102C6300C006C007900100E0FCA3E0FDA3E0FEA3C3
:102C7300E0FF7808121DEBD003D002D001D000EFA3
:102C83002BFFEE3AFEED39FDEC38FC900100121DEE
:102C9300FE7F127ED21242D0E4FCFDFE90010412AC
:102CA3001DFE7F147ED21242D0E4FCFDFEC004C0A0
:102CB30005C006C007900104E0FCA3E0FDA3E0FE0D
:102CC300A3E0FF7808121DEBD003D002D001D0009F
:102CD300EF2BFFEE3AFEED39FDEC38FC90010412C8
:102CE3001DFE7F157ED21242D0E4FCFDFEC004C05F
:102CF30005C006C007900104E0FCA3E0FDA3E0FECD
:102D0300A3E0FF7808121DEBD003D002D001D0005E
:102D1300EF2BFFEE3AFEED39FDEC38FC9001041287
:102D23001DFE900104E0FCA3E0FDA3E0FEA3E0FF91
:102D3300900100E0F8A3E0F9A3E0FAA3E0FBD312CB
:102D43001DDA4039900104E0F8A3E0F9A3E0FAA307
:102D5300E0FB900100E0FCA3E0FDA3E0FEA3E09B09
:102D6300FFEE9AFEED99FDEC98FCE47B207A4EF998
:102D7300F8C3121DDA50037F01227F002290010065
:102D8300E0F8A3E0F9A3E0FAA3E0FBA3E0FCA3E0EF
:102D9300FDA3E0FEA3E0C39BFFEE9AFEED99FDECDD
:102DA30098FCE47B207A4EF9F8C3121DDA50037FB6
:042DB30001227F007A
:012DB70022F9
:104204007D017F007ED81241AF1D7F5A1241AF7DE0
:10421400071241AAE4FD0F1241AF7D070F1241AF0F
:044224000F0241AF95
:1021610074FF900103F0A3F0A3F0A3F0A3F0A3F098
:1021710078097C017D01FB7A3D79097E007F20127F
:102181001BA078297C017D017BFF7A3D79297E00A6
:102191007F20121BA078497C017D017BFF7A3D796C
:1021A100497E007F20121BA07D017F007ED8124155
:1021B100AF7B0FEB25E025E024E6F582E4343FF523
:1021C10083740193C454F0FD7F5A7ED81241AFEB62
:1021D10025E025E024E8F582E4343FF5837401939A
:1021E100FD7F5C1241AFEB25E025E024E6F582E4BA
:1021F100343FF583E474019375F011A4FD0F12418E
:10220100AFEB25E025E024E8F582E4343FF5837463
:102211000193FD0F1241AFEB25E025E024E8F582A3
:10222100E4343FF583740193FD0F1241AF7D077FC5
:10223100207EC01241AF7D011241AF7F647E00124A
:1022410041E67F247EC01242D0EF547FFEEB25E0B1
:102251002409F582E43401F583EEF0A3E4F07F254F
:102261007EC01242D0EB25E02409F582E43401F569
:1022710083E48FF0121CA77F261242D0EF547FFE19
:10228100EB25E02429F582E43401F583EEF0A3E4A3
:10229100F07F277EC01242D0EB25E02429F582E4AD
:1022A1003401F583E48FF0121CA77F281242D0EF8E
:1022B100547FFEEB25E02449F582E43401F583EEF9
:1022C100F0A3E4F07F297EC01242D0EB25E024493F
:1022D100F582E43401F583E48FF0121CA7EB25E0CD
:1022E1002409F582E43401F583E0FEA3E0FF9001C7
:1022F10003E0FCA3E0FDD3EF9DEE9C501DEB25E038
:102301002409F582E43401F583E0FFA3E0900103A1
:10231100CFF0A3EFF0900100EBF0EB25E02429F5DD
:1023210082E43401F583E0FEA3E0FF900105E0FCC7
:10233100A3E0FDD3EF9DEE9C501DEB25E02429F594
:1023410082E43401F583E0FFA3E0900105CFF0A31F
:10235100EFF0900101EBF0EB25E02449F582E43444
:1023610001F583E0FEA3E0FF900107E0FCA3E0FD9F
:10237100D3EF9DEE9C501DEB25E02449F582E4341A
:1023810001F583E0FFA3E0900107CFF0A3EFF09008
:102391000102EBF01BEB640760030221B490010022
:1023A100E025E025E024E6F582E4343FF583E4749A
:1023B100019375F011A4FD7F5A7ED81241AF9001AF
:1023C10000E025E025E024E8F582E4343FF583745C
:1023D1000193FD0F1241AF900100E025E025E024BB
:1023E100E8F582E4343FF583740193FD0F1241AFA8
:1023F100900102E025E025E024E6F582E4343FF592
:1024010083740193C454F0FF900101E025E025E0BD
:1024110024E6F582E4343FF5837401932FFD7F5D5B
:102421001241AF900101E025E025E024E8F582E4C6
:10243100343FF583740193FD0F1241AF900102E027
:1024410025E025E024E8F582E4343FF58374019327
:05245100FD0F0241AF88
:1042D7007F027EA01242D0EF5420B420037F002239
:0242E7007F0155
:0142E90022B2
:101E3B007F8B7ED21242D0EF90010CF0A3E4F07FA7
:101E4B008C7ED21242D090010DE02FF090010CE06D
:101E5B003400F0A3E025E0F090010CE033F01241E8
:101E6B00B67FFA7E001241E67F8B7ED21242D0EF14
:101E7B007D00FC7F8C7ED21242D0ED2FFDE43CFC2A
:101E8B00ED25E0FDEC33FCE4900116F0C390010D61
:101E9B00E09D90010CE09C503F900116E004F0E0B7
:101EAB00D3940550331241B67FC87E001241E67FB2
:101EBB008B7ED21242D0EF7D00FC7F8C1242D0ED94
:101ECB002FFDE43CFCED25E0FDEC33FC90010CE038
:101EDB00B504C6A3E0B505C17D0B1242BEE4FCFD03
:101EEB00FE900100121DFE7FB27EB81242D0E4FCC0
:101EFB00FDFEC004C005C006C007900100E0FCA3B6
:101F0B00E0FDA3E0FEA3E0FF7808121DEBD003D0A9
:101F1B0002D001D000EF2BFFEE3AFEED39FDEC388D
:101F2B00FC900100121DFE7FB37EB81242D0E4FC80
:101F3B00FDFEC004C005C006C007900100E0FCA375
:101F4B00E0FDA3E0FEA3E0FF7808121DEBD003D069
:101F5B0002D001D000EF2BFFEE3AFEED39FDEC384D
:101F6B00FC900100121DFE7D017F347EA01241AF5B
:101F7B007F897ED21242D0EF900104F0A3E4F07F70
:101F8B008A7ED21242D0900105E02FF0900104E03E
:101F9B003400F0A3E025E0F0900104E033F07F8BF8
:101FAB001242D0EF900106F0A3E4F07F8C7ED212A8
:101FBB0042D0900107E02FF0900106E03400F0A32F
:101FCB00E025E0F0900106E033F07F9C1242D0EF69
:101FDB00900108F0A3E4F07F9D7ED21242D09001D5
:101FEB0009E02FF0900108E03400F0A3E025E0F0C9
:101FFB00900108E033F07F941242D0EF90010AF089
:10200B00A3E4F07F957ED21242D090010BE02FF02B
:10201B0090010AE03400F0A3E025E0F090010AE023
:10202B0033F07F981242D0EF7B00FA7F997ED21269
:10203B0042D0EB2FFBE43AFAEB25E0FBEA33FA7FD5
:10204B009E1242D0EF90010EF0A3E4F07F9F7ED260
:10205B001242D090010FE02FF090010EE03400F00F
:10206B007F961242D0EF900110F0A3E4F07F977EA1
:10207B00D21242D0900111E02FF0900110E0340009
:10208B00F07F881242D0900112EFF07F861242D07F
:10209B00900113EFF07F871242D0900114EFF07F85
:1020AB00A01242D0EF5402C313900115F07FA0127F
:1020BB0042D0EF5401F9900100E0FCA3E0FDA3E056
:1020CB00FEA3E0FF90016C121DFE900104E0FFA344
:1020DB00E0900170CFF0A3EFF0900106E0FFA3E0DA
:1020EB00900172CFF0A3EFF0900108E0FFA3E09016
:1020FB000174CFF0A3EFF090010AE0FFA3E0900191
:10210B0076CFF0A3EFF0AE02AF03A3EEF0A3EFF0A8
:10211B0090010EE0FFA3E090017ACFF0A3EFF090D7
:10212B000110E0FFA3E090017CCFF0A3EFF0900152
:10213B0012E090017EF0900113E090017FF090018E
:10214B0014E0900180F0900115E0900181F0AF0157
:05215B00A3EFF07F017D
:01216000225C
:102F7700E4900100F0F9FBFD7F507EA01241AF7D88
:102F8700020F1241AF0D0F1241AFE4FD0F1241AF17
:102F97007DF10F1241AF7F501242D0EF4402FD7F07
:102FA700501241AF7F647E001241E67F0C7EA01273
:102FB70042D0EF540260097F0C1242D0EF5401FB5C
:102FC7007F507EA01242D0EF54FDFD7F501241AFDB
:102FD7007F021242D0EF5480900100F07F717EC0D3
:102FE7001242D0EF5460F96009900100E0600302DB
:102FF7003086900195E0FC702AEBB401137D047FC5
:10300700507EA01241AFE4FD7F551241AF0231233C
:10301700E4FD7F507EA01241AF7F551241AF7D0383
:10302700023123EC64027026EBB4010DE4FD7F50FE
:103037007EA01241AF7DF0800BE4FD7F507EA01291
:1030470041AF7DE07F551241AFE4FD02312390018E
:1030570095E064016003023128EBB4010DE4FD7FC4
:10306700507EA01241AF7DFC800BE4FD7F507EA017
:103077001241AF7DEC7F551241AFE4FD023123E9E8
:103087006420704C900195E0FC7013FD7F507EA08A
:103097001241AF7D037F551241AF7D3C807EECB47A
:1030A7000214E4FD7F507EA01241AF7D037F5512CD
:1030B70041AFE4FD8066900195E0640170637D0493
:1030C7007F507EA01241AFE4FD7F551241AF804C87
:1030D700E96440704C900195E0FC7011FD7F507ED3
:1030E700A01241AF7F551241AF7D3C802FECB40257
:1030F700127D047F507EA01241AFE4FD7F5512413F
:10310700AF8019900195E0B40117E4FD7F507EA0D0
:103117001241AF7D0C7F551241AFE4FD7F5712413D
:01312700AFF8
:013128002284
:103D6900900181E0640160237F057EC01242D0EF9B
:103D79007F0530E5081242D0EF54DF80087EC0127B
:103D890042D0EF4420FD7F051241AF900182E064EB
:103D99000160237F057EC01242D0EF7F0530E40821
:103DA9001242D0EF54EF80087EC01242D0EF441087
:073DB900FD7F051241AF225E
:104066007D437F357EA01241AF7D210F1241AF7D8A
:10407600040F1241AF7D320F1241AF7D100F124176
:10408600AF7D430F1241AF7D210F1241AF7D040F6B
:0F4096001241AF7D320F1241AF7D100F0241AFCB
:10386200900185E0FCB4010D7DFF7F437EA01241F3
:10387200AFE4FD8024EC6402702590018AE0B4017B
:103882000D7DF57F437EA01241AFE4FD800B7DE408
:103892007F437EA01241AF7D800F7EC21241AF7D79
:1038A200347F557EB01241AF7D9F7F5D1241AF7F65
:1038B2005F1241AF7D8F7F611241AF7D9F7F6312A7
:1038C20041AF7F651241AF7D347F771241AF7D9F5B
:1038D2007F7F1241AF7F811241AF7D8F7F83124183
:1038E200AF7D9F7F851241AF7F871241AF90018AE2
:1038F200E0704C7D347F441241AF7D9F7F4C12417A
:10390200AF7F4E1241AF7D8F7F501241AF7D9F7FBF
:10391200521241AF7F541241AF7D347F661241AFE4
:103922007D9F7F6E1241AF7F701241AF7D8F7F729C
:103932001241AF7D9F7F741241AF7F761241AF2259
:10245600E4900104F0A3F0A3F07D0B7F347EA0127C
:1024660041AF7F141242C7E4FCFDFE900100121D2D
:10247600FE7FB27EB81242D0E4FCFDFEC004C00569
:10248600C006C007900100E0FCA3E0FDA3E0FEA3A8
:10249600E0FF7808121DEBD003D002D001D000EF88
:1024A6002BFFEE3AFEED39FDEC38FC900100121DD3
:1024B600FE7FB37EB81242D0E4FCFDFEC004C00528
:1024C600C006C007900100E0FCA3E0FDA3E0FEA368
:1024D600E0FF7808121DEBD003D002D001D000EF48
:1024E6002BFFEE3AFEED39FDEC38FC900100121D93
:1024F600FE7D017F347EA01241AFE47BE87A03F9CA
:10250600F8900100E0FCA3E0FDA3E0FEA3E0FF12CB
:102516001D4890018BE014601104702E7C007D0331
:10252600121C40900169E0FD800EEF25E0FFEE33BE
:10253600FE900169E0FD7C00121C52900185E0FDD1
:102546007C00121C52900104EFF0900104E0240F6D
:10255600F0E0C3941950037419F07D387F3A7EB0C9
:102566001241AF7D010F1241AF900104E0FFC39409
:10257600BB5015EFC39450400F7D187F3E1241AFFC
:102586009001057401F08061900104E0FFC394504E
:102596005017EFC3942840117D087F3E7EB012414C
:1025A600AF9001057402F08040900104E0FFC394EF
:1025B600285017EFC3941440117D287F3E7EB01239
:1025C60041AF9001057404F0801F900104E0FFC341
:1025D60094145015EFC3940A400F7D387F3E7EB0A9
:1025E6001241AF9001057408F07D107F3F7EB01256
:1025F60041AB900105E0FF900104E08FF0A4AEF03E
:102606007803C333CE33CED8F9FF7C007D1B121C72
:1026160052AD077F417EB01241AF7DDF7F0F7E90C6
:102626001241AF7F447EB01242D0EF54BFFD7F44CB
:102636001241DF7DFF7F0F7E901241AF7F447EB057
:102646001242D0EF4440FD7F441241AF7D1A124240
:10265600BEE4FCFDFE900190121DFE7FB27EB81214
:1026660042D0E4FCFDFEC004C005C006C0079001D0
:1026760090E0FCA3E0FDA3E0FEA3E0FF7808121DB6
:10268600EBD003D002D001D000EF2BFFEE3AFEEDE7
:1026960039FDEC38FC900190121DFE7FB37EB81216
:1026A60042D0E4FCFDFEC004C005C006C007900190
:1026B60090E0FCA3E0FDA3E0FEA3E0FF7808121D76
:1026C600EBD003D002D001D000EF2BFFEE3AFEEDA7
:1026D60039FDEC38FC900190121DFE7D017F347EA1
:1026E600A01241AFE47F04FE1DFC900190E0F8A328
:1026F600E0F9A3E0FAA3E0FB121CBD900106EFF09F
:0127060022B0
:10340600E47BE87A03F9F8900190E0FCA3E0FDA3E1
:10341600E0FEA3E0FF121D48AC07EC75F01484240F
:1034260004FBEC75F012842406FAEC75F0068404AD
:10343600900100F0EC75F00A8404A3F0EC75F00C32
:10344600842408A3F0EC75F01984A3F0EC75F0055C
:1034560084F97F447EB01242D0EF4480FD7F44124F
:1034660041AF7D807EA01241AF7F491241AFE4FD9E
:10347600FF7EC21241AB7F561241AF7D0F7F2012F5
:1034860041AF7DFF7F251241AF7F2C1241AF9001E6
:1034960002E0FD7F221241AF900103E0FD0F1241D1
:1034A600AFAD010F1241AFAD027F2F1241AFAD0399
:1034B6000F1241AF7DAA0F1241AFAD027F521241EA
:1034C600AFAD030F1241AF7DAA0F1241AF90018A33
:1034D600E07028AD037F261241AFAD020F1241AF57
:1034E6007DAA7F2E1241AFAD027F321241AFAD03EE
:1034F6000F1241AF7DAA7F511241AFEC75F00A84DD
:103506002408FD7F287EC21241AFEB2AFF900100FE
:10351600E02FFD7F2A1241AF7D107F1B1241AF7D48
:0B352600507F1D1241AF7F2D0241AF0E
:10270700900172E0FD7F0C7EC21241AF900173E031
:10271700FD0F1241AF900180E0FF90017FE02FFD98
:102727007F351241AF90017CE0FD7F061241AF90EB
:10273700017DE0FD0F1241AF7D557F0F1241AF9034
:102747000185E0640160030227FC900196E024F80C
:10275700604324086003022994900172E0FD7F38EA
:102767007EC21241AF900173E0FD0F1241849001C8
:102777008BE0FC700B7D267F171241AF7D3E80708A
:10278700EC640160030229947D247F177EC2124105
:10279700AF7D1C805B900172E0FD7F387EC21241E5
:1027A700AF900173E0FD0F1241AF900180E0FF9001
:1027B700017FE02F14FD7F041241AF7D010F12410D
:1027C700AF1D7F081241AF0D1241A690018BE0FCAF
:1027D700700B7D267F171241AF7D248013EC6401B7
:1027E70060030229947D247F177EC21241AF7D1EAC
:1027F7007F12022991900172E0FEA3E07802CEC316
:1028070013CE13D8F9EEFD7F107EC21241AF9001AF
:1028170072E0FEA3E07802CEC313CE13D8F9FD7F92
:10282700117EC21241AF900196E024F8700302288E
:10283700D724086003022994900172E0C313FEEEC7
:10284700FD7F387EC21241AF900172E0C313A3E04F
:1028570013FD0F7EC2124184900172E0C313FEEE96
:10286700FD7F367EC21241AF900172E0C313A3E031
:1028770013FD0F7EC21241AF90017FE0FD7F57121B
:1028870041AF900180E0FD0F1241AF0F12419C90C4
:10289700018BE0FC70187DA67F171241AF7F4C12A9
:1028A70041AF7D3E7F121241AF7F5D022991EC64FB
:1028B7000160030229947DA47F177EC21241AF7F76
:1028C7004C1241AF7D1C7F121241AF7F5D022991EF
:1028D700900172E0C313FEEEFD7F387EC21241AF56
:1028E700900172E0C313A3E013FD0F7EC21241AF44
:1028F700900180E0FF90017FE02F14FD7F041241DB
:10290700AF7D010F1241AF1D7F081241AF0D12417C
:10291700A6900172E0C313FEEEFD7F367EC2124120
:10292700AF900172E0C313A3E013FD0F7EC2124103
:10293700AF900180E0FF90017FE02F14FD7F5712D9
:1029470041AF7D010F1241AF1D0F1241AF0D124173
:10295700A690018BE0FC70177DA67F171241AF7F11
:102967004C1241AF7D247F121241AF7F5D801BEC7B
:10297700B4011A7DA47F177EC21241AF7F4C12416A
:0E298700AF7D1E7F121241AF7F5D1241AF2265
:10376600E4FD7F1C7EC21241AF7D807F141241AF03
:10377600900169E014700302381C14606814603408
:1037860014600302384F900196E0FF90016AE04F03
:10379600FD7F017EC21241AF900196E0FF90016A63
:1037A600E04FFD7F561241AF7D017F021241AF7D92
:1037B600A002384B90016AE04430FF900196E04F3A
:1037C600FD7F017EC21241AF90016AE04430FF9056
:1037D6000196E04FFD7F561241AF7D017F021241F7
:1037E600AF7D90806090016AE04420FF900196E0F2
:1037F6004FFD7F017EC21241AF90016AE04420FF77
:10380600900196E04FFD7F561241AF7D027F021276
:1038160041AF7D58802F90016AE04410FF900196D9
:10382600E04FFD7F017EC21241AF90016AE0441075
:10383600FF900196E04FFD7F561241AF7D037F0258
:103846001241AFE4FD0F1241AF7F147E001241E634
:0C38560090016BE0FD7F007EC20241AFDC
:103EB000E4FD7F277EB81241AF7DC07F007EB01247
:103EC00041AFE4FD7F8C1241AF1241A67D7F7F069A
:103ED0007E901241AF7D387F3A7EB01241AFE4FD53
:103EE0007F017EC21241AF7F561241AF7DBE7F0A75
:0E3EF0007E901241AFE4FD7F057EC00241AF1F
:0C3EFE007E001241E6900194E0FFE4FD1C
:103F0A00AC05EF6008E4FD7F8C7EB080317D707F68
:103F1A008C7EB01241AF7F467EA01242D0EF448021
:103F2A00FD7F461241AFEC7F4860081242D0EF4451
:103F3A000480087EA01242D0EF54FBFD7F48124154
:023F4A00AF22A4
:1040E20090019CE0FD7F0C7ED21241AF90019DE0D9
:1040F200FD0F1241AF90019EE0FD0F1241AF900102
:104102009FE0FD0F1241AF9001A0E0FD0F1241AF01
:094112009001A1E0FD0F0241AF94
:1042FC007D4F7F1F7EB01241AF7D2E7F2E0241AFCE
:102DB80090019A7401F07F64123EFEE4FD7F067E66
:102DC800C01241AF123CA61240E2123F99123F4C8A
:102DD800124204123EB0123B3F1242FC7D017F3486
:102DE8007EA01241AF7F2C7E011241E67D087F064E
:102DF8007EC01241AF7FF47E011241E6E490019754
:102E0800F0900197E07031124026EF602590019A0A
:102E1800E0B4010E123B3F123F999001977401F004
:102E28008016122BF3EF60028008123A1AEF60083E
:102E380080009001977404F0900197E06404703268
:102E480090019AE07027123EB07DFB7F077E9012BA
:102E580041AF123F037DFF7F077E901241AF900183
:102E68009A7401F0E4A3F012430C1242FCE49001BE
:102E780097F0900197E064017056123531EF6009C0
:102E8800123E11124151EF70F1124151EF7041128F
:102E98004204123E61122995123942EF600612214E
:102EA80061123E617F147E001241E6124151EF60CB
:102EB800089001977401F080061242D7EF70E5126E
:102EC80040A51241B6E4900199F09001977402F080
:102ED800900197E0B4021C7FFA7E001241E6121EB0
:102EE8003BEF600FE490019AF0900198F090019701
:102EF8007403F0900197E064036003022E09124105
:102F08001B1240661238621224561234069001963B
:102F1800E0702A900194E0FF7D01123F0A7F32128F
:102F28003EFE7F787E001241E6900194E0FF7D012D
:102F3800123F0A7F967E001241E6120003122F7795
:102F4800122707123D69900196E0B4080F9001948A
:102F5800E0FF7D01123F0A7FC8123EFE123766125B
:0F2F68003C3AE4900197F090019B04F0022E098F
:1033E50057016C00030D40046204380021000A00F7
:1033F5000107D007803020000101430169040760FF
:10422800E4900183F0900194F090018A04F09001E9
:1042380085F0E4900195F090018BF0900196F002E2
:024248002DB88F
:10424A00FFFF000000000000FFFF00000000000068
:0E425A00FFFF000000000000FFFF000000005A
:103CA6007D997F627E901241AF7DF07F317EA012BA
:103CB60041AF7D207F2E7EB01241AFE4FD7F297E8D
:103CC600B01241AF7D487F307EB01241AF7D057F97
:103CD600327EB01241AF7D557F217EB81241AF7D55
:103CE600407F3A7EB81241AF7D117F837ED212416A
:103CF600AF7D417F087EB81241AF7DF37F927EA0F3
:033D06000241AFC8
:10415100E47DFE7F037E901241AF7F057E00124118
:10416100E67DFF7F037E901241AF7F0A7E00124100
:10417100E67FB07EB81242D0EF544070037F012237
:024181007F00BD
:014183002219
:103F99007DBF7F927EB01241AFE4FD7F217EB012DA
:103FA90041AF7DC17F227EB01241AF7D097F287E5E
:103FB900B01241AF7D2C7F257EB01241AF7D7F7F4E
:103FC9000F7E901241AF7F0A7E001241E67DFF7F8E
:0D3FD9000F7E901241AF7F0A7E000241E68C
:09430C007DC07F217EB00241AFAB
:103531007D017F347EA01241AF7F0A7E001241E6F9
:103541007FB17EB81242D0E4FCFDFE90018C121DC9
:10355100FE7FB27EB81242D0E4FCFDFEC004C0057D
:10356100C006C00790018CE0FCA3E0FDA3E0FEA330
:10357100E0FF7808121DEBD003D002D001D000EF9C
:103581002BFFEE3AFEED39FDEC38FC90018C121D5B
:10359100FE7FB37EB81242D0E4FCFDFEC004C0053C
:1035A100C006C00790018CE0FCA3E0FDA3E0FEA3F0
:1035B100E0FF7808121DEBD003D002D001D000EF5C
:1035C1002BFFEE3AFEED39FDEC38FC90018C121D1B
:1035D100FEE47F207E4EFDFC90018CE0F8A3E0F933
:1035E100A3E0FAA3E0FBC3121DDA40177F687EA7B0
:1035F1007D047C0090018CE0F8A3A3A3E0D3121D0D
:10360100DA40037F00227F887E017D037C009001E8
:103611008CE0F8A3E0F9A3E0FAA3E0FBC3121DDA02
:1036210040047D4780227F007E777D017C009001F0
:103631008CE0F8A3E0F9A3E0FAA3E0FBC3121DDAE2
:1036410050047D7780027D677F2A7EB01241AF7D75
:0B365100427F2B7EB01241AF7F0122B0
:103E11007D7F7F0F7E901241AF7F0A7E001241E6C7
:103E21007DFF7F0F7E901241AF7F0A7E001241E637
:103E31007D147F147EB81241AF7F017E001241E6EE
:103E41007D947F147EB81241AF7F017E001241E65E
:103E51007DB47F147EB81241AF7F0A7E000241E635
:1040A5007DFB7F107E901241AF7DFB7F077E9012D6
:1040B50041AF7DDF7F087E901241AF7F0A7E0012FF
:1040C50041E67DFF7F087E901241AF7DFF7F077E31
:0D40D500901241AF7DFF7F107E900241AF41
:1041B6007DFE7F0B7E901241AF7F0A7E001241E6A4
:1041C6007D3F7F0A7E901241AF7F0A7E001241E654
:0941D6007DBF7F0A7E900241AF1B
:103E6100E4FD7F1F7EB01241AFE4FD7F207EB012E2
:103E710041AF7DBF7F0F7E901241AF7DFE7F0D7EF2
:103E8100901241AF7DEF7F037E901241AF7F0A7E9A
:103E9100001241E67DFF7F0D7E901241AF7DFF7FD5
:0F3EA1000F7E901241AF7DFF7F037E900241AFF5
:1029950074FF900100F0A3F0A3F0A3F0A3F0A3F05F
:1029A50078067C017D01FB7A42794A7E007F081218
:1029B5001BA0780E7C017D017BFF7A4279527E0057
:1029C5007F08121BA078167C017D017BFF7A427976
:1029D5005A7E007F08121BA0E490011EF0A3F0A30D
:1029E500F0A3F07FA07E867D01FC90018CE0F8A32A
:1029F500E0F9A3E0FAA3E0FBC3121DDA4003022BC2
:102A0500E97D0F7F277EB81241AFE490011EF0905B
:102A1500011EE0FFC39404748094804003022BBF21
:102A2500EFC454F0FD7F297EB81241AF90011EE03E
:102A3500C454F0FD7F2A7EB81241AF90011EE0C458
:102A450054F0FD7F2B7EB81241AF7D077F207EC0FD
:102A55001241AF7D017F207EC01241AF7F327E00E3
:102A65001241E67F247EC01242D0EF547FFE9001D2
:102A75001EE025E02406F582E43401F583EEF0A39B
:102A8500E4F07F257EC01242D090011EE025E024AF
:102A950006F582E43401F583E48FF0121CA77F2646
:102AA5007EC01242D0EF547FFE90011EE025E02447
:102AB5000EF582E43401F583EEF0A3E4F07F277E82
:102AC500C01242D090011EE025E0240EF582E434C8
:102AD50001F583E48FF0121CA77F287EC01242D037
:102AE500EF547FFE90011EE025E02416F582E434C4
:102AF50001F583EEF0A3E4F07F297EC01242D09069
:102B0500011EE0FD25E02416F582E43401F583E499
:102B15008FF0121CA7ED25E02406F582E43401F5BB
:102B250083E0FEA3E0FF900100E0FCA3E0FDD3EF0E
:102B35009DEE9C501290011EE0FD900100EEF0A369
:102B4500EFF090011FEDF090011EE025E0240EF559
:102B550082E43401F583E0FEA3E0FF900102E0FC8E
:102B6500A3E0FDD3EF9DEE9C501290011EE0FD9079
:102B75000102EEF0A3EFF0900120EDF090011EE0D0
:102B850025E02416F582E43401F583E0FEA3E0FF99
:102B9500900104E0FCA3E0FDD3EF9DEE9C50129064
:102BA500011EE0FD900104EEF0A3EFF0900121ED90
:102BB500F090011EE004F0022A1490011FE0C454B5
:102BC500F0FD7F297EB81241AF900120E0C454F09A
:102BD500FD7F2A7EB81241AF900121E0C454F0FD7B
:0D2BE5007F2B8004E4FD7F277EB81241AFF6
:012BF20022C0
:1039420078007C017D017BFF7A4279627E007F06EE
:10395200121BA07D077F207EC01241AF7D017F2018
:103962007EC01241AF7F647E001241E67F247EC09A
:103972001242D0EF547F7F00FEC006C0077F257E33
:10398200C01242D0EFFDD0E02DFED0E03400900115
:1039920000F0A3CEF07F267EC01242D0EF547F7F8C
:1039A20000FEC006C0077F277EC01242D0EFFDD0C6
:1039B200E02DFED0E03400900102F0A3CEF07F288B
:1039C2007EC01242D0EF547F7F00FEC006C0077F48
:1039D200297EC01242D0EFFDD0E02DFED0E03400AF
:1039E200900104F0A3CEF0D3900101E09400900185
:1039F20000E09400501C900103E09400900102E06A
:103A02009400500E900105E09400900104E09400AF
:073A120040037F01227F0049
:013A1900228A
:103ABF00024228E493A3F8E493A34003F68001F2B3
:103ACF0008DFF48029E493A3F85407240CC8C33308
:103ADF00C4540F4420C8834004F456800146F6DFD7
:103AEF00E4800B01020408102040809032BEE47E77
:103AFF00019360BCA3FF543F30E509541FFEE493CC
:103B0F00A360010ECF54C025E060A840B8E493A392
:103B1F00FAE493A3F8E493A3C8C582C8CAC583CABD
:103B2F00F0A3C8C582C8CAC583CADFE9DEE780BE75
:0134050000C6
:101AD000E709F608DFFA8046E709F208DFFA803EF8
:101AE00088828C83E709F0A3DFFA8032E309F608E5
:101AF000DFFA8078E309F208DFFA807088828C834D
:101B0000E309F0A3DFFA806489828A83E0A3F60800
:101B1000DFFA805889828A83E0A3F208DFFA804CDA
:101B200080D280FA80C680D4806980F280338010B1
:101B300080A680EA809A80A880DA80E280CA80331A
:101B400089828A83ECFAE493A3C8C582C8CCC58392
:101B5000CCF0A3C8C582C8CCC583CCDFE9DEE78062
:101B60000D89828A83E493A3F608DFF9ECFAA9F0E1
:101B7000EDFB2289828A83ECFAE0A3C8C582C8CC37
:101B8000C583CCF0A3C8C582C8CCC583CCDFEADE50
:101B9000E880DB89828A83E493A3F208DFF980CCB2
:101BA00088F0EF60010E4E60C388F0ED2402B404AB
:101BB0000050B9F582EB2402B4040050AF23234552
:061BC0008223901B20733C
:101BC600BB010689828A83E0225002E722BBFE021D
:091BD600E32289828A83E4932250
:101BDF00BB010CE58229F582E5833AF583E02250BB
:101BEF0006E92582F8E622BBFE06E92582F8E22205
:0D1BFF00E58229F582E5833AF583E493221F
:101C0C00BB010689828A83F0225002F722BBFE01B7
:021C1C00F322B1
:101C1E00F8BB010DE58229F582E5833AF583E8F0FC
:101C2E00225006E92582C8F622BBFE05E92582C8A8
:021C3E00F22290
:101C4000EF8DF0A4A8F0CF8CF0A428CE8DF0A42EB8
:021C5000FE2272
:101C5200BC000BBE0029EF8DF084FFADF022E4CC76
:101C6200F875F008EF2FFFEE33FEEC33FCEE9DEC3F
:101C7200984005FCEE9DFE0FD5F0E9E4CEFD22ED85
:101C8200F8F5F0EE8420D21CFEADF075F008EF2FCF
:101C9200FFED33FD4007985006D5F0F222C398FDC0
:051CA2000FD5F0EA225D
:101CA700C5F0F8A3E028F0C5F0F8E58215827002C8
:061CB7001583E038F02265
:101CBD00E88FF0A4CC8BF0A42CFCE98EF0A42CFCC6
:101CCD008AF0EDA42CFCEA8EF0A4CDA8F08BF0A444
:101CDD002DCC3825F0FDE98FF0A42CCD35F0FCEBA3
:101CED008EF0A4FEA9F0EB8FF0A4CFC5F02ECD3968
:0F1CFD00FEE43CFCEAA42DCE35F0FDE43CFC22D5
:101D0C0075F008758200EF2FFFEE33FECD33CDCC8E
:101D1C0033CCC58233C5829BED9AEC99E582984011
:101D2C000CF582EE9BFEED9AFDEC99FC0FD5F0D6EE
:101D3C00E4CEFBE4CDFAE4CCF9A88222B800C1B918
:101D4C000059BA002DEC8BF084CFCECDFCE5F0CB56
:101D5C00F97818EF2FFFEE33FEED33FDEC33FCEB8F
:101D6C0033FB10D703994004EB99FB0FD8E5E4F94A
:101D7C00FA227818EF2FFFEE33FEED33FDEC33FC37
:101D8C00C933C910D7059BE99A4007EC9BFCE99A2B
:101D9C00F90FD8E0E4C9FAE4CCFB2275F010EF2F70
:101DAC00FFEE33FEED33FDCC33CCC833C810D70770
:101DBC009BEC9AE899400AED9BFDEC9AFCE899F8AB
:0E1DCC000FD5F0DAE4CDFBE4CCFAE4C8F9223E
:101DDA00EB9FF5F0EA9E42F0E99D42F0E89C45F05F
:011DEA0022D6
:101DEB00E8600FEFC333FFEE33FEED33FDEC33FC56
:031DFB00D8F122FA
:0C1DFE00ECF0A3EDF0A3EEF0A3EFF02258
:101E0A00A8828583F0D083D082121E21121E21124D
:101E1A001E21121E21E473E493A3C583C5F0C58372
:101E2A00C8C582C8F0A3C583C5F0C583C8C582C822
:011E3A002285
:00000001FF
